{
  "contractName": "RewardToken",
  "abi": [
    {
      "constant": true,
      "inputs": [],
      "name": "owner",
      "outputs": [
        {
          "name": "",
          "type": "address"
        }
      ],
      "payable": false,
      "stateMutability": "view",
      "type": "function"
    },
    {
      "constant": true,
      "inputs": [],
      "name": "creationTime",
      "outputs": [
        {
          "name": "",
          "type": "uint256"
        }
      ],
      "payable": false,
      "stateMutability": "view",
      "type": "function"
    },
    {
      "constant": true,
      "inputs": [],
      "name": "_testAddr",
      "outputs": [
        {
          "name": "",
          "type": "address"
        }
      ],
      "payable": false,
      "stateMutability": "view",
      "type": "function"
    },
    {
      "inputs": [
        {
          "name": "name",
          "type": "bytes32"
        },
        {
          "name": "decimals",
          "type": "uint8"
        },
        {
          "name": "totalSupply",
          "type": "uint256"
        }
      ],
      "payable": false,
      "stateMutability": "nonpayable",
      "type": "constructor"
    },
    {
      "anonymous": false,
      "inputs": [
        {
          "indexed": true,
          "name": "from",
          "type": "address"
        },
        {
          "indexed": true,
          "name": "to",
          "type": "address"
        },
        {
          "indexed": false,
          "name": "tokens",
          "type": "uint256"
        }
      ],
      "name": "Transfer",
      "type": "event"
    },
    {
      "anonymous": false,
      "inputs": [
        {
          "indexed": true,
          "name": "tokenOwner",
          "type": "address"
        },
        {
          "indexed": true,
          "name": "spender",
          "type": "address"
        },
        {
          "indexed": false,
          "name": "tokens",
          "type": "uint256"
        }
      ],
      "name": "Approval",
      "type": "event"
    },
    {
      "constant": false,
      "inputs": [
        {
          "name": "newOwner",
          "type": "address"
        }
      ],
      "name": "changeOwner",
      "outputs": [],
      "payable": false,
      "stateMutability": "nonpayable",
      "type": "function"
    },
    {
      "constant": false,
      "inputs": [
        {
          "name": "addr",
          "type": "address"
        }
      ],
      "name": "addAuthorizedEntityClassA",
      "outputs": [
        {
          "name": "",
          "type": "bool"
        }
      ],
      "payable": false,
      "stateMutability": "nonpayable",
      "type": "function"
    },
    {
      "constant": false,
      "inputs": [
        {
          "name": "addr",
          "type": "address"
        }
      ],
      "name": "removeAuthorizedEntityClassA",
      "outputs": [
        {
          "name": "",
          "type": "bool"
        }
      ],
      "payable": false,
      "stateMutability": "nonpayable",
      "type": "function"
    },
    {
      "constant": true,
      "inputs": [
        {
          "name": "addr",
          "type": "address"
        }
      ],
      "name": "isClassAAuthorized",
      "outputs": [
        {
          "name": "",
          "type": "bool"
        }
      ],
      "payable": false,
      "stateMutability": "view",
      "type": "function"
    },
    {
      "constant": false,
      "inputs": [
        {
          "name": "_to",
          "type": "address"
        },
        {
          "name": "_value",
          "type": "uint256"
        }
      ],
      "name": "reward",
      "outputs": [
        {
          "name": "",
          "type": "bool"
        }
      ],
      "payable": false,
      "stateMutability": "nonpayable",
      "type": "function"
    },
    {
      "constant": true,
      "inputs": [],
      "name": "totalSupply",
      "outputs": [
        {
          "name": "",
          "type": "uint256"
        }
      ],
      "payable": false,
      "stateMutability": "view",
      "type": "function"
    },
    {
      "constant": false,
      "inputs": [
        {
          "name": "_to",
          "type": "address"
        },
        {
          "name": "_value",
          "type": "uint256"
        }
      ],
      "name": "transfer",
      "outputs": [
        {
          "name": "",
          "type": "bool"
        }
      ],
      "payable": false,
      "stateMutability": "nonpayable",
      "type": "function"
    },
    {
      "constant": true,
      "inputs": [
        {
          "name": "_owner",
          "type": "address"
        }
      ],
      "name": "balanceOf",
      "outputs": [
        {
          "name": "balance",
          "type": "uint256"
        }
      ],
      "payable": false,
      "stateMutability": "view",
      "type": "function"
    },
    {
      "constant": false,
      "inputs": [
        {
          "name": "_from",
          "type": "address"
        },
        {
          "name": "_to",
          "type": "address"
        },
        {
          "name": "_value",
          "type": "uint256"
        }
      ],
      "name": "transferFrom",
      "outputs": [
        {
          "name": "",
          "type": "bool"
        }
      ],
      "payable": false,
      "stateMutability": "nonpayable",
      "type": "function"
    },
    {
      "constant": false,
      "inputs": [
        {
          "name": "_spender",
          "type": "address"
        },
        {
          "name": "_value",
          "type": "uint256"
        }
      ],
      "name": "approve",
      "outputs": [
        {
          "name": "",
          "type": "bool"
        }
      ],
      "payable": false,
      "stateMutability": "nonpayable",
      "type": "function"
    },
    {
      "constant": true,
      "inputs": [
        {
          "name": "_owner",
          "type": "address"
        },
        {
          "name": "_spender",
          "type": "address"
        }
      ],
      "name": "allowance",
      "outputs": [
        {
          "name": "",
          "type": "uint256"
        }
      ],
      "payable": false,
      "stateMutability": "view",
      "type": "function"
    },
    {
      "constant": false,
      "inputs": [
        {
          "name": "_spender",
          "type": "address"
        },
        {
          "name": "_addedValue",
          "type": "uint256"
        }
      ],
      "name": "increaseApproval",
      "outputs": [
        {
          "name": "",
          "type": "bool"
        }
      ],
      "payable": false,
      "stateMutability": "nonpayable",
      "type": "function"
    },
    {
      "constant": false,
      "inputs": [
        {
          "name": "_spender",
          "type": "address"
        },
        {
          "name": "_subtractedValue",
          "type": "uint256"
        }
      ],
      "name": "decreaseApproval",
      "outputs": [
        {
          "name": "",
          "type": "bool"
        }
      ],
      "payable": false,
      "stateMutability": "nonpayable",
      "type": "function"
    }
  ],
  "bytecode": "0x608060405233600760006101000a81548173ffffffffffffffffffffffffffffffffffffffff021916908373ffffffffffffffffffffffffffffffffffffffff1602179055504260085534801561005557600080fd5b50604051606080611a0d833981018060405281019080805190602001909291908051906020019092919080519060200190929190505050826000816000191690555081600160006101000a81548160ff021916908360ff1602179055508060028190555080600360003373ffffffffffffffffffffffffffffffffffffffff1673ffffffffffffffffffffffffffffffffffffffff168152602001908152602001600020819055505050506118fe8061010f6000396000f3006080604052600436106100e6576000357c0100000000000000000000000000000000000000000000000000000000900463ffffffff168063076729bd146100eb578063095ea7b31461014657806318160ddd146101ab578063208ad2b7146101d657806321670f221461023157806323b872dd14610296578063661884631461031b57806370a08231146103805780638da5cb5b146103d7578063a0d2d5e71461042e578063a6f9dae114610489578063a9059cbb146104cc578063d73dd62314610531578063d8270dce14610596578063dd62ed3e146105c1578063fc9dbf0a14610638575b600080fd5b3480156100f757600080fd5b5061012c600480360381019080803573ffffffffffffffffffffffffffffffffffffffff16906020019092919050505061068f565b604051808215151515815260200191505060405180910390f35b34801561015257600080fd5b50610191600480360381019080803573ffffffffffffffffffffffffffffffffffffffff169060200190929190803590602001909291905050506106e5565b604051808215151515815260200191505060405180910390f35b3480156101b757600080fd5b506101c06107d7565b6040518082815260200191505060405180910390f35b3480156101e257600080fd5b50610217600480360381019080803573ffffffffffffffffffffffffffffffffffffffff1690602001909291905050506107e1565b604051808215151515815260200191505060405180910390f35b34801561023d57600080fd5b5061027c600480360381019080803573ffffffffffffffffffffffffffffffffffffffff1690602001909291908035906020019092919050505061090b565b604051808215151515815260200191505060405180910390f35b3480156102a257600080fd5b50610301600480360381019080803573ffffffffffffffffffffffffffffffffffffffff169060200190929190803573ffffffffffffffffffffffffffffffffffffffff16906020019092919080359060200190929190505050610be7565b604051808215151515815260200191505060405180910390f35b34801561032757600080fd5b50610366600480360381019080803573ffffffffffffffffffffffffffffffffffffffff16906020019092919080359060200190929190505050610f8b565b604051808215151515815260200191505060405180910390f35b34801561038c57600080fd5b506103c1600480360381019080803573ffffffffffffffffffffffffffffffffffffffff169060200190929190505050611213565b6040518082815260200191505060405180910390f35b3480156103e357600080fd5b506103ec61125c565b604051808273ffffffffffffffffffffffffffffffffffffffff1673ffffffffffffffffffffffffffffffffffffffff16815260200191505060405180910390f35b34801561043a57600080fd5b5061046f600480360381019080803573ffffffffffffffffffffffffffffffffffffffff169060200190929190505050611282565b604051808215151515815260200191505060405180910390f35b34801561049557600080fd5b506104ca600480360381019080803573ffffffffffffffffffffffffffffffffffffffff1690602001909291905050506112d8565b005b3480156104d857600080fd5b50610517600480360381019080803573ffffffffffffffffffffffffffffffffffffffff169060200190929190803590602001909291905050506113e3565b604051808215151515815260200191505060405180910390f35b34801561053d57600080fd5b5061057c600480360381019080803573ffffffffffffffffffffffffffffffffffffffff169060200190929190803590602001909291905050506115f5565b604051808215151515815260200191505060405180910390f35b3480156105a257600080fd5b506105ab6117e8565b6040518082815260200191505060405180910390f35b3480156105cd57600080fd5b50610622600480360381019080803573ffffffffffffffffffffffffffffffffffffffff169060200190929190803573ffffffffffffffffffffffffffffffffffffffff1690602001909291905050506117ee565b6040518082815260200191505060405180910390f35b34801561064457600080fd5b5061064d611875565b604051808273ffffffffffffffffffffffffffffffffffffffff1673ffffffffffffffffffffffffffffffffffffffff16815260200191505060405180910390f35b6000600560008373ffffffffffffffffffffffffffffffffffffffff1673ffffffffffffffffffffffffffffffffffffffff16815260200190815260200160002060009054906101000a900460ff169050919050565b600081600460003373ffffffffffffffffffffffffffffffffffffffff1673ffffffffffffffffffffffffffffffffffffffff16815260200190815260200160002060008573ffffffffffffffffffffffffffffffffffffffff1673ffffffffffffffffffffffffffffffffffffffff168152602001908152602001600020819055508273ffffffffffffffffffffffffffffffffffffffff163373ffffffffffffffffffffffffffffffffffffffff167f8c5be1e5ebec7d5bd14f71427d1e84f3dd0314c0f7b2291e5b200ac8c7c3b925846040518082815260200191505060405180910390a36001905092915050565b6000600254905090565b6000600760009054906101000a900473ffffffffffffffffffffffffffffffffffffffff168073ffffffffffffffffffffffffffffffffffffffff163373ffffffffffffffffffffffffffffffffffffffff161415156108a9576040517f08c379a00000000000000000000000000000000000000000000000000000000081526004018080602001828103825260168152602001807f53656e646572206e6f7420617574686f72697a65642e0000000000000000000081525060200191505060405180910390fd5b6001600560008573ffffffffffffffffffffffffffffffffffffffff1673ffffffffffffffffffffffffffffffffffffffff16815260200190815260200160002060006101000a81548160ff0219169083151502179055506001915050919050565b600060011515600560003373ffffffffffffffffffffffffffffffffffffffff1673ffffffffffffffffffffffffffffffffffffffff16815260200190815260200160002060009054906101000a900460ff1615151415156109d5576040517f08c379a00000000000000000000000000000000000000000000000000000000081526004018080602001828103825260168152602001807f53656e646572206e6f7420617574686f72697a65642e0000000000000000000081525060200191505060405180910390fd5b600073ffffffffffffffffffffffffffffffffffffffff168373ffffffffffffffffffffffffffffffffffffffff1614151515610a1157600080fd5b60036000600760009054906101000a900473ffffffffffffffffffffffffffffffffffffffff1673ffffffffffffffffffffffffffffffffffffffff1673ffffffffffffffffffffffffffffffffffffffff168152602001908152602001600020548211151515610a8157600080fd5b610aec60036000600760009054906101000a900473ffffffffffffffffffffffffffffffffffffffff1673ffffffffffffffffffffffffffffffffffffffff1673ffffffffffffffffffffffffffffffffffffffff168152602001908152602001600020548361189b565b60036000600760009054906101000a900473ffffffffffffffffffffffffffffffffffffffff1673ffffffffffffffffffffffffffffffffffffffff1673ffffffffffffffffffffffffffffffffffffffff16815260200190815260200160002081905550610b9a600360008573ffffffffffffffffffffffffffffffffffffffff1673ffffffffffffffffffffffffffffffffffffffff16815260200190815260200160002054836118b4565b600360008573ffffffffffffffffffffffffffffffffffffffff1673ffffffffffffffffffffffffffffffffffffffff168152602001908152602001600020819055506001905092915050565b60008073ffffffffffffffffffffffffffffffffffffffff168373ffffffffffffffffffffffffffffffffffffffff1614151515610c2457600080fd5b600360008573ffffffffffffffffffffffffffffffffffffffff1673ffffffffffffffffffffffffffffffffffffffff168152602001908152602001600020548211151515610c7257600080fd5b600460008573ffffffffffffffffffffffffffffffffffffffff1673ffffffffffffffffffffffffffffffffffffffff16815260200190815260200160002060003373ffffffffffffffffffffffffffffffffffffffff1673ffffffffffffffffffffffffffffffffffffffff168152602001908152602001600020548211151515610cfd57600080fd5b610d46600360008673ffffffffffffffffffffffffffffffffffffffff1673ffffffffffffffffffffffffffffffffffffffff168152602001908152602001600020548361189b565b600360008673ffffffffffffffffffffffffffffffffffffffff1673ffffffffffffffffffffffffffffffffffffffff16815260200190815260200160002081905550610dd2600360008573ffffffffffffffffffffffffffffffffffffffff1673ffffffffffffffffffffffffffffffffffffffff16815260200190815260200160002054836118b4565b600360008573ffffffffffffffffffffffffffffffffffffffff1673ffffffffffffffffffffffffffffffffffffffff16815260200190815260200160002081905550610e9b600460008673ffffffffffffffffffffffffffffffffffffffff1673ffffffffffffffffffffffffffffffffffffffff16815260200190815260200160002060003373ffffffffffffffffffffffffffffffffffffffff1673ffffffffffffffffffffffffffffffffffffffff168152602001908152602001600020548361189b565b600460008673ffffffffffffffffffffffffffffffffffffffff1673ffffffffffffffffffffffffffffffffffffffff16815260200190815260200160002060003373ffffffffffffffffffffffffffffffffffffffff1673ffffffffffffffffffffffffffffffffffffffff168152602001908152602001600020819055508273ffffffffffffffffffffffffffffffffffffffff168473ffffffffffffffffffffffffffffffffffffffff167fddf252ad1be2c89b69c2b068fc378daa952ba7f163c4a11628f55a4df523b3ef846040518082815260200191505060405180910390a3600190509392505050565b600080600460003373ffffffffffffffffffffffffffffffffffffffff1673ffffffffffffffffffffffffffffffffffffffff16815260200190815260200160002060008573ffffffffffffffffffffffffffffffffffffffff1673ffffffffffffffffffffffffffffffffffffffff1681526020019081526020016000205490508083111561109c576000600460003373ffffffffffffffffffffffffffffffffffffffff1673ffffffffffffffffffffffffffffffffffffffff16815260200190815260200160002060008673ffffffffffffffffffffffffffffffffffffffff1673ffffffffffffffffffffffffffffffffffffffff16815260200190815260200160002081905550611127565b6110a6818461189b565b600460003373ffffffffffffffffffffffffffffffffffffffff1673ffffffffffffffffffffffffffffffffffffffff16815260200190815260200160002060008673ffffffffffffffffffffffffffffffffffffffff1673ffffffffffffffffffffffffffffffffffffffff168152602001908152602001600020819055505b8373ffffffffffffffffffffffffffffffffffffffff163373ffffffffffffffffffffffffffffffffffffffff167f8c5be1e5ebec7d5bd14f71427d1e84f3dd0314c0f7b2291e5b200ac8c7c3b925600460003373ffffffffffffffffffffffffffffffffffffffff1673ffffffffffffffffffffffffffffffffffffffff16815260200190815260200160002060008873ffffffffffffffffffffffffffffffffffffffff1673ffffffffffffffffffffffffffffffffffffffff168152602001908152602001600020546040518082815260200191505060405180910390a3600191505092915050565b6000600360008373ffffffffffffffffffffffffffffffffffffffff1673ffffffffffffffffffffffffffffffffffffffff168152602001908152602001600020549050919050565b600760009054906101000a900473ffffffffffffffffffffffffffffffffffffffff1681565b6000600560008373ffffffffffffffffffffffffffffffffffffffff1673ffffffffffffffffffffffffffffffffffffffff16815260200190815260200160002060006101000a81549060ff0219169055919050565b600760009054906101000a900473ffffffffffffffffffffffffffffffffffffffff168073ffffffffffffffffffffffffffffffffffffffff163373ffffffffffffffffffffffffffffffffffffffff1614151561139e576040517f08c379a00000000000000000000000000000000000000000000000000000000081526004018080602001828103825260168152602001807f53656e646572206e6f7420617574686f72697a65642e0000000000000000000081525060200191505060405180910390fd5b81600760006101000a81548173ffffffffffffffffffffffffffffffffffffffff021916908373ffffffffffffffffffffffffffffffffffffffff1602179055505050565b60008073ffffffffffffffffffffffffffffffffffffffff168373ffffffffffffffffffffffffffffffffffffffff161415151561142057600080fd5b600360003373ffffffffffffffffffffffffffffffffffffffff1673ffffffffffffffffffffffffffffffffffffffff16815260200190815260200160002054821115151561146e57600080fd5b6114b7600360003373ffffffffffffffffffffffffffffffffffffffff1673ffffffffffffffffffffffffffffffffffffffff168152602001908152602001600020548361189b565b600360003373ffffffffffffffffffffffffffffffffffffffff1673ffffffffffffffffffffffffffffffffffffffff16815260200190815260200160002081905550611543600360008573ffffffffffffffffffffffffffffffffffffffff1673ffffffffffffffffffffffffffffffffffffffff16815260200190815260200160002054836118b4565b600360008573ffffffffffffffffffffffffffffffffffffffff1673ffffffffffffffffffffffffffffffffffffffff168152602001908152602001600020819055508273ffffffffffffffffffffffffffffffffffffffff163373ffffffffffffffffffffffffffffffffffffffff167fddf252ad1be2c89b69c2b068fc378daa952ba7f163c4a11628f55a4df523b3ef846040518082815260200191505060405180910390a36001905092915050565b600061167d600460003373ffffffffffffffffffffffffffffffffffffffff1673ffffffffffffffffffffffffffffffffffffffff16815260200190815260200160002060008573ffffffffffffffffffffffffffffffffffffffff1673ffffffffffffffffffffffffffffffffffffffff16815260200190815260200160002054836118b4565b600460003373ffffffffffffffffffffffffffffffffffffffff1673ffffffffffffffffffffffffffffffffffffffff16815260200190815260200160002060008573ffffffffffffffffffffffffffffffffffffffff1673ffffffffffffffffffffffffffffffffffffffff168152602001908152602001600020819055508273ffffffffffffffffffffffffffffffffffffffff163373ffffffffffffffffffffffffffffffffffffffff167f8c5be1e5ebec7d5bd14f71427d1e84f3dd0314c0f7b2291e5b200ac8c7c3b925600460003373ffffffffffffffffffffffffffffffffffffffff1673ffffffffffffffffffffffffffffffffffffffff16815260200190815260200160002060008773ffffffffffffffffffffffffffffffffffffffff1673ffffffffffffffffffffffffffffffffffffffff168152602001908152602001600020546040518082815260200191505060405180910390a36001905092915050565b60085481565b6000600460008473ffffffffffffffffffffffffffffffffffffffff1673ffffffffffffffffffffffffffffffffffffffff16815260200190815260200160002060008373ffffffffffffffffffffffffffffffffffffffff1673ffffffffffffffffffffffffffffffffffffffff16815260200190815260200160002054905092915050565b600660009054906101000a900473ffffffffffffffffffffffffffffffffffffffff1681565b60008282111515156118a957fe5b818303905092915050565b60008082840190508381101515156118c857fe5b80915050929150505600a165627a7a72305820b1e3d5005d4c611c3570ad49d5b10ee59d6d12fb1b0340e4a00164c4c40cacfd0029",
  "source": "pragma solidity ^0.4.10;\n\n// structs look like this:\n/*\nstruct Funder {\n  address addr;\n  uint amount;\n}\n\n// The Ethereum Virtual Machine has three areas where it can store data,\n// storage, memory and the stack.\n// Storage is persistent between function calls and transactions. Storage is a\n// key-value store that maps 256-bit words to 256-bit words. It is not possible\n// to enumerate storage and it is costly to read and modify.\n// Memory is more costly the larger it grows (it scales quadratically).\n// The EVM is not a register machine but a stack machine, so all computations\n// are performed on an data area called the stack. It has a maximum size of 1024\n// elements and contains words of 256 bits.\n\nData location\nEvery complex type, i.e. arrays and structs, has an additional annotation, the\n“data location”, about whether it is stored in memory or in storage. Depending\non the context, there is always a default, but it can be overridden by appending\neither storage or memory to the type. The default for function parameters\n(including return parameters) is memory, the default for local variables is\nstorage and the location is forced to storage for state variables (obviously)\n\nAssignments to local storage variables only assign a reference though, and this\nreference always points to the state variable even if the latter is changed in\nthe meantime. On the other hand, assignments from a memory stored reference type\nto another memory-stored reference type do not create a copy.\n\nArrays can have a compile-time fixed size or they can be dynamic.\nCreating arrays with variable length in memory can be done using the new keyword.\n*/\n\nimport 'contracts/rewardCoin/SafeMath.sol';\nimport 'contracts/rewardCoin/ERC20Interface.sol';\n\ncontract RewardToken is ERC20Interface {\n  using SafeMath for uint;\n  //TODO figure out if these should be private instead of internal\n  struct RewardRoleEntity {\n      bool isRewardRole;\n  }\n\n  bytes32 internal _name;\n  uint8 internal _decimals;\n  uint256 internal _totalSupply;\n\n  // ultimately, we would like to express an authorization framework, such that\n  // different classes of users are defined and functions in the api are allowed/disallowed\n  // based upon a user's set of privledges.\n\n  mapping (address => uint256) internal balances;\n  mapping (address => mapping (address => uint256)) internal allowed;\n  mapping (address => bool) rewardRoleAddresses;\n  // mapping (address => bool) otherRoleAddresses;\n  address public _testAddr;\n\n  address public owner = msg.sender;\n  uint public creationTime = now;\n\n  // An array of 5 dynamic arrays of uint is uint[][5] (note that the notation\n  // is reversed when compared to some other languages)\n  constructor(bytes32 name, uint8 decimals, uint256 totalSupply)\n  public {\n    _name = name;\n    _decimals = decimals;\n    _totalSupply = totalSupply;\n    balances[msg.sender] = totalSupply;\n  }\n\n  modifier onlyBy(address account) {\n    require(\n      msg.sender == account,\n      \"Sender not authorized.\"\n    );\n    _;\n    // Do not forget the \"_;\"! It will\n    // be replaced by the actual function\n    // body when the modifier is used.\n  }\n  modifier onlyByClassA() {\n    require(\n      rewardRoleAddresses[msg.sender] == true,\n      \"Sender not authorized.\"\n    );\n    _;\n  }\n  function changeOwner(address newOwner)\n  public onlyBy(owner) {\n    owner = newOwner;\n  }\n  function addAuthorizedEntityClassA(address addr)\n  public onlyBy(owner) returns(bool){\n    rewardRoleAddresses[addr] = true;\n    return true;\n  }\n  function removeAuthorizedEntityClassA(address addr)\n  public returns(bool) {\n    delete rewardRoleAddresses[addr];\n  }\n  function isClassAAuthorized(address addr)\n  public view returns(bool){\n    return rewardRoleAddresses[addr];\n  }\n  function reward(address _to, uint256 _value)\n  public onlyByClassA returns(bool){\n    require(_to != address(0));\n    require(_value <= balances[owner]);\n    balances[owner] = SafeMath.sub(balances[owner], _value);\n    balances[_to] = SafeMath.add(balances[_to], _value);\n    return true;\n  }\n\n  // *************************************************************************\n  // ****************************** BEGIN ERC20 ******************************\n  // *************************************************************************\n  // totalSupply - Get the total token supply\n  // balanceOf - Get the token balance of an address\n  // transfer - Send tokens to another address\n  // approve - Give another address permission to spend a certain allowance of tokens\n  // allowance - Check the allowance that one address has for another\n  // transferFrom - Spend the allowance that one address has for another */\n\n  function totalSupply()\n  public constant returns (uint) {\n    return _totalSupply;\n  }\n\n  // https://github.com/ethereum/EIPs/issues/223\n  // If the _to address is a contract, these tokens will get transfered to the\n  // contract and will be irretrievable. Consider implementing ERC223 to\n  // accomodate this issue.\n  //\n  // A contract which is aware of RewardCoin/ERC20 should interact with the\n  // contract through the approve/transferFrom methods.\n  //\n  // ERC223 is a cool idea, but it's only useful for ERC223-to-ERC223 transfers.\n  // We should definitely safeguards to transfer() so that transfer to contracts\n  // is not allowed. Even though some contract may be able to handle the tokens,\n  // the approve/transferFrom technique makes that more certain.\n  // Another option would be to simple claim any token sent to a contract via\n  // transfer(), but this could operational overhead when angry users want to\n  // reclaim their tokens. On the upside, free tokens in the case where the user\n  // doesn't complain.\n  function transfer(address _to, uint256 _value)\n  public returns(bool) {\n    // Address(0) is 0x0. It is the burn address for ETH.\n    // When used in the tx.to field, will cause the tx to create a new contract\n    require(_to != address(0));\n    require(_value <= balances[msg.sender]);\n    balances[msg.sender] = SafeMath.sub(balances[msg.sender], _value);\n    balances[_to] = SafeMath.add(balances[_to], _value);\n    emit Transfer(msg.sender, _to, _value);\n    return true;\n  }\n\n  function balanceOf(address _owner)\n  public view returns (uint256 balance) {\n    return balances[_owner];\n  }\n\n  function transferFrom(address _from, address _to, uint256 _value)\n  public returns (bool) {\n    require(_to != address(0));\n    require(_value <= balances[_from]);\n    require(_value <= allowed[_from][msg.sender]);\n    balances[_from] = SafeMath.sub(balances[_from], _value);\n    balances[_to] = SafeMath.add(balances[_to], _value);\n    allowed[_from][msg.sender] = SafeMath.sub(allowed[_from][msg.sender], _value);\n    emit Transfer(_from, _to, _value);\n    return true;\n  }\n\n  // Approve allows a token holder to allocate some coins to an address without\n  // specifying the amount. This has a few usecases, but the main reason this\n  // is done is for contract-to-contract interoperability. Since contracts\n  // cannot listen for events so they will never be notified when they receive\n  // tokens.\n  //\n  // If a user wants to send RewardCoin tokens to another contract, the user\n  // should first approve the transfer to the contract's address. The user\n  // can then call a function in the contract(e.g. buyWithRewardCoin) that will\n  // will then call transferFrom.\n  function approve(address _spender, uint256 _value)\n  public returns (bool) {\n    allowed[msg.sender][_spender] = _value;\n    emit Approval(msg.sender, _spender, _value);\n    return true;\n  }\n\n  function allowance(address _owner, address _spender)\n  public view returns (uint256) {\n    return allowed[_owner][_spender];\n  }\n\n  // Allows incremental changes to allowed[]\n  function increaseApproval(address _spender, uint _addedValue)\n  public returns (bool) {\n    allowed[msg.sender][_spender] = SafeMath.add(allowed[msg.sender][_spender], _addedValue);\n    emit Approval(msg.sender, _spender, allowed[msg.sender][_spender]);\n    return true;\n  }\n\n  function decreaseApproval(address _spender, uint _subtractedValue)\n  public returns (bool) {\n    uint oldValue = allowed[msg.sender][_spender];\n    if (_subtractedValue > oldValue) {\n      allowed[msg.sender][_spender] = 0;\n    } else {\n      allowed[msg.sender][_spender] = SafeMath.sub(oldValue, _subtractedValue);\n    }\n    emit Approval(msg.sender, _spender, allowed[msg.sender][_spender]);\n    return true;\n  }\n  // *************************************************************************\n  // ****************************** END ERC20 ******************************\n  // *************************************************************************\n}\n",
  "sourcePath": "/Users/clay/projects/rewardCoin/truffle/contracts/RewardToken.sol",
  "compiler": {
    "name": "solc",
    "version": "0.4.24+commit.e67f0147.Emscripten.clang"
  },
  "schemaVersion": "2.0.1",
  "updatedAt": "2018-10-03T05:22:20.392Z"
}