{
  "contractName": "SnekCoin0_0_1",
  "abi": [
    {
      "constant": true,
      "inputs": [
        {
          "name": "s",
          "type": "LibInterface.S storage"
        }
      ],
      "name": "getSender",
      "outputs": [
        {
          "name": "",
          "type": "address"
        }
      ],
      "payable": false,
      "stateMutability": "view",
      "type": "function"
    },
    {
      "constant": false,
      "inputs": [
        {
          "name": "s",
          "type": "LibInterface.S storage"
        },
        {
          "name": "amount",
          "type": "uint256"
        },
        {
          "name": "sender",
          "type": "address"
        },
        {
          "name": "value",
          "type": "uint256"
        }
      ],
      "name": "mine",
      "outputs": [
        {
          "name": "",
          "type": "bool"
        }
      ],
      "payable": false,
      "stateMutability": "nonpayable",
      "type": "function"
    },
    {
      "constant": false,
      "inputs": [
        {
          "name": "s",
          "type": "LibInterface.S storage"
        },
        {
          "name": "who",
          "type": "address"
        },
        {
          "name": "amount",
          "type": "uint256"
        }
      ],
      "name": "approveMine",
      "outputs": [
        {
          "name": "",
          "type": "bool"
        }
      ],
      "payable": false,
      "stateMutability": "nonpayable",
      "type": "function"
    },
    {
      "constant": true,
      "inputs": [
        {
          "name": "s",
          "type": "LibInterface.S storage"
        },
        {
          "name": "who",
          "type": "address"
        }
      ],
      "name": "isMineApproved",
      "outputs": [
        {
          "name": "",
          "type": "uint256"
        }
      ],
      "payable": false,
      "stateMutability": "view",
      "type": "function"
    },
    {
      "constant": false,
      "inputs": [
        {
          "name": "s",
          "type": "LibInterface.S storage"
        },
        {
          "name": "amount",
          "type": "uint256"
        }
      ],
      "name": "changeMiningPrice",
      "outputs": [
        {
          "name": "",
          "type": "bool"
        }
      ],
      "payable": false,
      "stateMutability": "nonpayable",
      "type": "function"
    },
    {
      "constant": true,
      "inputs": [
        {
          "name": "s",
          "type": "LibInterface.S storage"
        }
      ],
      "name": "getMiningPrice",
      "outputs": [
        {
          "name": "",
          "type": "uint256"
        }
      ],
      "payable": false,
      "stateMutability": "view",
      "type": "function"
    },
    {
      "constant": true,
      "inputs": [
        {
          "name": "s",
          "type": "LibInterface.S storage"
        }
      ],
      "name": "totalSupply",
      "outputs": [
        {
          "name": "",
          "type": "uint256"
        }
      ],
      "payable": false,
      "stateMutability": "view",
      "type": "function"
    },
    {
      "constant": true,
      "inputs": [
        {
          "name": "s",
          "type": "LibInterface.S storage"
        },
        {
          "name": "_owner",
          "type": "address"
        }
      ],
      "name": "balanceOf",
      "outputs": [
        {
          "name": "",
          "type": "uint256"
        }
      ],
      "payable": false,
      "stateMutability": "view",
      "type": "function"
    },
    {
      "constant": true,
      "inputs": [
        {
          "name": "s",
          "type": "LibInterface.S storage"
        },
        {
          "name": "_owner",
          "type": "address"
        },
        {
          "name": "_spender",
          "type": "address"
        }
      ],
      "name": "allowance",
      "outputs": [
        {
          "name": "",
          "type": "uint256"
        }
      ],
      "payable": false,
      "stateMutability": "view",
      "type": "function"
    },
    {
      "constant": false,
      "inputs": [
        {
          "name": "s",
          "type": "LibInterface.S storage"
        },
        {
          "name": "_to",
          "type": "address"
        },
        {
          "name": "_value",
          "type": "uint256"
        },
        {
          "name": "sender",
          "type": "address"
        }
      ],
      "name": "transfer",
      "outputs": [
        {
          "name": "",
          "type": "bool"
        }
      ],
      "payable": false,
      "stateMutability": "nonpayable",
      "type": "function"
    },
    {
      "constant": false,
      "inputs": [
        {
          "name": "s",
          "type": "LibInterface.S storage"
        },
        {
          "name": "_from",
          "type": "address"
        },
        {
          "name": "_to",
          "type": "address"
        },
        {
          "name": "_value",
          "type": "uint256"
        },
        {
          "name": "sender",
          "type": "address"
        }
      ],
      "name": "transferFrom",
      "outputs": [
        {
          "name": "",
          "type": "bool"
        }
      ],
      "payable": false,
      "stateMutability": "nonpayable",
      "type": "function"
    },
    {
      "constant": false,
      "inputs": [
        {
          "name": "s",
          "type": "LibInterface.S storage"
        },
        {
          "name": "_spender",
          "type": "address"
        },
        {
          "name": "_value",
          "type": "uint256"
        },
        {
          "name": "sender",
          "type": "address"
        }
      ],
      "name": "approve",
      "outputs": [
        {
          "name": "",
          "type": "bool"
        }
      ],
      "payable": false,
      "stateMutability": "nonpayable",
      "type": "function"
    },
    {
      "constant": false,
      "inputs": [
        {
          "name": "s",
          "type": "LibInterface.S storage"
        },
        {
          "name": "_spender",
          "type": "address"
        },
        {
          "name": "_addedValue",
          "type": "uint256"
        }
      ],
      "name": "increaseApproval",
      "outputs": [
        {
          "name": "",
          "type": "bool"
        }
      ],
      "payable": false,
      "stateMutability": "nonpayable",
      "type": "function"
    },
    {
      "constant": false,
      "inputs": [
        {
          "name": "s",
          "type": "LibInterface.S storage"
        },
        {
          "name": "_spender",
          "type": "address"
        },
        {
          "name": "_subtractedValue",
          "type": "uint256"
        }
      ],
      "name": "decreaseApproval",
      "outputs": [
        {
          "name": "",
          "type": "bool"
        }
      ],
      "payable": false,
      "stateMutability": "nonpayable",
      "type": "function"
    }
  ],
  "bytecode": "0x6116e0610030600b82828239805160001a6073146000811461002057610022565bfe5b5030600052607381538281f30073000000000000000000000000000000000000000030146080604052600436106100e7576000357c0100000000000000000000000000000000000000000000000000000000900463ffffffff1680631058248c146100ec5780632dab5487146101655780633053fdec146101d4578063726eecb114610283578063873b63f3146102b7578063ab62d85114610317578063c138734814610386578063c266bd3a146103d5578063c3fc280b14610464578063e77176e8146104b8578063ed1d493f14610547578063ed324a2d1461057b578063f11d2c04146105ea578063fae7b71d1461065e575b600080fd5b8180156100f857600080fd5b5061014b6004803603810190808035906020019092919080359060200190929190803573ffffffffffffffffffffffffffffffffffffffff169060200190929190803590602001909291905050506106b2565b604051808215151515815260200191505060405180910390f35b81801561017157600080fd5b506101ba60048036038101908080359060200190929190803573ffffffffffffffffffffffffffffffffffffffff169060200190929190803590602001909291905050506107e1565b604051808215151515815260200191505060405180910390f35b8180156101e057600080fd5b5061026960048036038101908080359060200190929190803573ffffffffffffffffffffffffffffffffffffffff169060200190929190803573ffffffffffffffffffffffffffffffffffffffff16906020019092919080359060200190929190803573ffffffffffffffffffffffffffffffffffffffff169060200190929190505050610955565b604051808215151515815260200191505060405180910390f35b6102a160048036038101908080359060200190929190505050610ca6565b6040518082815260200191505060405180910390f35b6102d560048036038101908080359060200190929190505050610cb4565b604051808273ffffffffffffffffffffffffffffffffffffffff1673ffffffffffffffffffffffffffffffffffffffff16815260200191505060405180910390f35b81801561032357600080fd5b5061036c60048036038101908080359060200190929190803573ffffffffffffffffffffffffffffffffffffffff16906020019092919080359060200190929190505050610cbe565b604051808215151515815260200191505060405180910390f35b81801561039257600080fd5b506103bb6004803603810190808035906020019092919080359060200190929190505050610dd5565b604051808215151515815260200191505060405180910390f35b8180156103e157600080fd5b5061044a60048036038101908080359060200190929190803573ffffffffffffffffffffffffffffffffffffffff16906020019092919080359060200190929190803573ffffffffffffffffffffffffffffffffffffffff169060200190929190505050610f0b565b604051808215151515815260200191505060405180910390f35b6104a260048036038101908080359060200190929190803573ffffffffffffffffffffffffffffffffffffffff1690602001909291905050506110c4565b6040518082815260200191505060405180910390f35b8180156104c457600080fd5b5061052d60048036038101908080359060200190929190803573ffffffffffffffffffffffffffffffffffffffff16906020019092919080359060200190929190803573ffffffffffffffffffffffffffffffffffffffff169060200190929190505050611110565b604051808215151515815260200191505060405180910390f35b610565600480360381019080803590602001909291905050506111a1565b6040518082815260200191505060405180910390f35b81801561058757600080fd5b506105d060048036038101908080359060200190929190803573ffffffffffffffffffffffffffffffffffffffff169060200190929190803590602001909291905050506112d4565b604051808215151515815260200191505060405180910390f35b61064860048036038101908080359060200190929190803573ffffffffffffffffffffffffffffffffffffffff169060200190929190803573ffffffffffffffffffffffffffffffffffffffff169060200190929190505050611482565b6040518082815260200191505060405180910390f35b61069c60048036038101908080359060200190929190803573ffffffffffffffffffffffffffffffffffffffff16906020019092919050505061150c565b6040518082815260200191505060405180910390f35b60008460060160019054906101000a900473ffffffffffffffffffffffffffffffffffffffff168560060160019054906101000a900473ffffffffffffffffffffffffffffffffffffffff168173ffffffffffffffffffffffffffffffffffffffff163373ffffffffffffffffffffffffffffffffffffffff16148061076357508073ffffffffffffffffffffffffffffffffffffffff163373ffffffffffffffffffffffffffffffffffffffff16145b15156107d7576040517f08c379a00000000000000000000000000000000000000000000000000000000081526004018080602001828103825260168152602001807f53656e646572206e6f7420617574686f72697a65642e0000000000000000000081525060200191505060405180910390fd5b5050949350505050565b60008360060160019054906101000a900473ffffffffffffffffffffffffffffffffffffffff168460060160019054906101000a900473ffffffffffffffffffffffffffffffffffffffff168173ffffffffffffffffffffffffffffffffffffffff163373ffffffffffffffffffffffffffffffffffffffff16148061089257508073ffffffffffffffffffffffffffffffffffffffff163373ffffffffffffffffffffffffffffffffffffffff16145b1515610906576040517f08c379a00000000000000000000000000000000000000000000000000000000081526004018080602001828103825260168152602001807f53656e646572206e6f7420617574686f72697a65642e0000000000000000000081525060200191505060405180910390fd5b838660090160008773ffffffffffffffffffffffffffffffffffffffff1673ffffffffffffffffffffffffffffffffffffffff1681526020019081526020016000208190555050509392505050565b60008073ffffffffffffffffffffffffffffffffffffffff168473ffffffffffffffffffffffffffffffffffffffff161415151561099257600080fd5b8560070160008673ffffffffffffffffffffffffffffffffffffffff1673ffffffffffffffffffffffffffffffffffffffff1681526020019081526020016000205483111515156109e257600080fd5b8560080160008673ffffffffffffffffffffffffffffffffffffffff1673ffffffffffffffffffffffffffffffffffffffff16815260200190815260200160002060008373ffffffffffffffffffffffffffffffffffffffff1673ffffffffffffffffffffffffffffffffffffffff168152602001908152602001600020548311151515610a6f57600080fd5b610aba8660070160008773ffffffffffffffffffffffffffffffffffffffff1673ffffffffffffffffffffffffffffffffffffffff168152602001908152602001600020548461167d565b8660070160008773ffffffffffffffffffffffffffffffffffffffff1673ffffffffffffffffffffffffffffffffffffffff16815260200190815260200160002081905550610b4a8660070160008673ffffffffffffffffffffffffffffffffffffffff1673ffffffffffffffffffffffffffffffffffffffff1681526020019081526020016000205484611696565b8660070160008673ffffffffffffffffffffffffffffffffffffffff1673ffffffffffffffffffffffffffffffffffffffff16815260200190815260200160002081905550610c178660080160008773ffffffffffffffffffffffffffffffffffffffff1673ffffffffffffffffffffffffffffffffffffffff16815260200190815260200160002060008473ffffffffffffffffffffffffffffffffffffffff1673ffffffffffffffffffffffffffffffffffffffff168152602001908152602001600020548461167d565b8660080160008773ffffffffffffffffffffffffffffffffffffffff1673ffffffffffffffffffffffffffffffffffffffff16815260200190815260200160002060008473ffffffffffffffffffffffffffffffffffffffff1673ffffffffffffffffffffffffffffffffffffffff168152602001908152602001600020819055506001905095945050505050565b600081600401549050919050565b6000339050919050565b6000610d488460080160003373ffffffffffffffffffffffffffffffffffffffff1673ffffffffffffffffffffffffffffffffffffffff16815260200190815260200160002060008573ffffffffffffffffffffffffffffffffffffffff1673ffffffffffffffffffffffffffffffffffffffff1681526020019081526020016000205483611696565b8460080160003373ffffffffffffffffffffffffffffffffffffffff1673ffffffffffffffffffffffffffffffffffffffff16815260200190815260200160002060008573ffffffffffffffffffffffffffffffffffffffff1673ffffffffffffffffffffffffffffffffffffffff16815260200190815260200160002081905550600190509392505050565b60008260060160019054906101000a900473ffffffffffffffffffffffffffffffffffffffff168360060160019054906101000a900473ffffffffffffffffffffffffffffffffffffffff168173ffffffffffffffffffffffffffffffffffffffff163373ffffffffffffffffffffffffffffffffffffffff161480610e8657508073ffffffffffffffffffffffffffffffffffffffff163373ffffffffffffffffffffffffffffffffffffffff16145b1515610efa576040517f08c379a00000000000000000000000000000000000000000000000000000000081526004018080602001828103825260168152602001807f53656e646572206e6f7420617574686f72697a65642e0000000000000000000081525060200191505060405180910390fd5b838560010181905550505092915050565b60008073ffffffffffffffffffffffffffffffffffffffff168473ffffffffffffffffffffffffffffffffffffffff1614151515610f4857600080fd5b8460070160008373ffffffffffffffffffffffffffffffffffffffff1673ffffffffffffffffffffffffffffffffffffffff168152602001908152602001600020548311151515610f9857600080fd5b610fe38560070160008473ffffffffffffffffffffffffffffffffffffffff1673ffffffffffffffffffffffffffffffffffffffff168152602001908152602001600020548461167d565b8560070160008473ffffffffffffffffffffffffffffffffffffffff1673ffffffffffffffffffffffffffffffffffffffff168152602001908152602001600020819055506110738560070160008673ffffffffffffffffffffffffffffffffffffffff1673ffffffffffffffffffffffffffffffffffffffff1681526020019081526020016000205484611696565b8560070160008673ffffffffffffffffffffffffffffffffffffffff1673ffffffffffffffffffffffffffffffffffffffff1681526020019081526020016000208190555060019050949350505050565b60008260070160008373ffffffffffffffffffffffffffffffffffffffff1673ffffffffffffffffffffffffffffffffffffffff16815260200190815260200160002054905092915050565b6000828560080160008473ffffffffffffffffffffffffffffffffffffffff1673ffffffffffffffffffffffffffffffffffffffff16815260200190815260200160002060008673ffffffffffffffffffffffffffffffffffffffff1673ffffffffffffffffffffffffffffffffffffffff1681526020019081526020016000208190555060019050949350505050565b60008160060160019054906101000a900473ffffffffffffffffffffffffffffffffffffffff168260060160019054906101000a900473ffffffffffffffffffffffffffffffffffffffff168173ffffffffffffffffffffffffffffffffffffffff163373ffffffffffffffffffffffffffffffffffffffff16148061125257508073ffffffffffffffffffffffffffffffffffffffff163373ffffffffffffffffffffffffffffffffffffffff16145b15156112c6576040517f08c379a00000000000000000000000000000000000000000000000000000000081526004018080602001828103825260168152602001807f53656e646572206e6f7420617574686f72697a65642e0000000000000000000081525060200191505060405180910390fd5b836001015492505050919050565b6000808460080160003373ffffffffffffffffffffffffffffffffffffffff1673ffffffffffffffffffffffffffffffffffffffff16815260200190815260200160002060008573ffffffffffffffffffffffffffffffffffffffff1673ffffffffffffffffffffffffffffffffffffffff168152602001908152602001600020549050808311156113e95760008560080160003373ffffffffffffffffffffffffffffffffffffffff1673ffffffffffffffffffffffffffffffffffffffff16815260200190815260200160002060008673ffffffffffffffffffffffffffffffffffffffff1673ffffffffffffffffffffffffffffffffffffffff16815260200190815260200160002081905550611476565b6113f3818461167d565b8560080160003373ffffffffffffffffffffffffffffffffffffffff1673ffffffffffffffffffffffffffffffffffffffff16815260200190815260200160002060008673ffffffffffffffffffffffffffffffffffffffff1673ffffffffffffffffffffffffffffffffffffffff168152602001908152602001600020819055505b60019150509392505050565b60008360080160008473ffffffffffffffffffffffffffffffffffffffff1673ffffffffffffffffffffffffffffffffffffffff16815260200190815260200160002060008373ffffffffffffffffffffffffffffffffffffffff1673ffffffffffffffffffffffffffffffffffffffff1681526020019081526020016000205490509392505050565b60008260060160019054906101000a900473ffffffffffffffffffffffffffffffffffffffff168360060160019054906101000a900473ffffffffffffffffffffffffffffffffffffffff168173ffffffffffffffffffffffffffffffffffffffff163373ffffffffffffffffffffffffffffffffffffffff1614806115bd57508073ffffffffffffffffffffffffffffffffffffffff163373ffffffffffffffffffffffffffffffffffffffff16145b1515611631576040517f08c379a00000000000000000000000000000000000000000000000000000000081526004018080602001828103825260168152602001807f53656e646572206e6f7420617574686f72697a65642e0000000000000000000081525060200191505060405180910390fd5b8460090160008573ffffffffffffffffffffffffffffffffffffffff1673ffffffffffffffffffffffffffffffffffffffff168152602001908152602001600020549250505092915050565b600082821115151561168b57fe5b818303905092915050565b60008082840190508381101515156116aa57fe5b80915050929150505600a165627a7a7230582089aac5ef5f33f90deb59a576c819f9d400de215f7ce599a4446d3ab4f1ee9a640029",
  "source": "pragma solidity ^0.4.10;\n\nimport \"../contracts/LibInterface.sol\";\nimport \"../contracts/lib/SafeMath.sol\";\n\nlibrary SnekCoin0_0_1 {\n  using SafeMath for uint;\n\n  modifier onlyBy(address account1, address account2) {\n    require(\n      msg.sender == account1 || msg.sender == account2 ,\n      \"Sender not authorized.\"\n    );\n    _;\n  }\n\n  function getSender(LibInterface.S storage s) public view returns(address){\n    return msg.sender;\n  }\n\n\n  function mine(LibInterface.S storage s, uint256 amount, address sender, uint256 value)\n  public onlyBy(s.root, s.root) returns(bool){\n\n  }\n  function approveMine(LibInterface.S storage s, address who, uint256 amount)\n  public onlyBy(s.root, s.root) returns(bool){\n    s.approvedMines[who] = amount;\n  }\n  function isMineApproved(LibInterface.S storage s, address who)\n  public view onlyBy(s.root, s.root) returns(uint256){\n    return s.approvedMines[who];\n  }\n\n  function changeMiningPrice(LibInterface.S storage s, uint256 amount)\n  public onlyBy(s.root, s.root) returns(bool){\n      s.weiPriceToMine = amount;\n  }\n\n  function getMiningPrice(LibInterface.S storage s)\n  public view onlyBy(s.root, s.root) returns(uint256){\n    return s.weiPriceToMine;\n  }\n\n\n  // *************************************************************************\n  // ****************************** BEGIN ERC20 ******************************\n  // *************************************************************************\n  // totalSupply - Get the total token supply\n  // balanceOf - Get the token balance of an address\n  // transfer - Send tokens to another address\n  // approve - Give another address permission to spend a certain allowance of tokens\n  // allowance - Check the allowance that one address has for another\n  // transferFrom - Spend the allowance that one address has for another */\n\n  function totalSupply(LibInterface.S storage s) public view returns(uint256) {\n    return s.totalSupp;\n  }\n\n  function balanceOf(LibInterface.S storage s, address _owner)\n  public view returns(uint256) {\n    return s.balances[_owner];\n  }\n\n  function allowance(LibInterface.S storage s, address _owner, address _spender)\n  public view returns(uint256) {\n    return s.allowed[_owner][_spender];\n  }\n\n  function transfer(LibInterface.S storage s, address _to, uint256 _value, address sender)\n  public returns(bool) {\n    // Address(0) is 0x0. It is the burn address for ETH.\n    // When used in the tx.to field, will cause the tx to create a new contract\n    require(_to != address(0));\n    require(_value <= s.balances[sender]);\n    s.balances[sender] = SafeMath.sub(s.balances[sender], _value);\n    s.balances[_to] = SafeMath.add(s.balances[_to], _value);\n    //emit Transfer(msg.sender, _to, _value);\n    return true;\n  }\n\n  function transferFrom(LibInterface.S storage s, address _from, address _to, uint256 _value, address sender)\n  public returns(bool) {\n    require(_to != address(0));\n    require(_value <= s.balances[_from]);\n    require(_value <= s.allowed[_from][sender]);\n    s.balances[_from] = SafeMath.sub(s.balances[_from], _value);\n    s.balances[_to] = SafeMath.add(s.balances[_to], _value);\n    s.allowed[_from][sender] = SafeMath.sub(s.allowed[_from][sender], _value);\n    //emit LibInterface.Transfer(_from, _to, _value);\n    return true;\n  }\n\n  // Approve allows a token holder to allocate some coins to an address without\n  // specifying the amount. This has a few usecases, but the main reason this\n  // is done is for contract-to-contract interoperability. Since contracts\n  // cannot listen for events so they will never be notified when they receive\n  // tokens.\n  //\n  // If a user wants to send RewardCoin tokens to another contract, the user\n  // should first approve the transfer to the contract's address. The user\n  // can then call a function in the contract(e.g. buyWithRewardCoin) that will\n  // will then call transferFrom.\n  function approve(LibInterface.S storage s, address _spender, uint256 _value, address sender)\n  public returns(bool) {\n    s.allowed[sender][_spender] = _value;\n    //emit Approval(msg.sender, _spender, _value);\n    return true;\n  }\n\n\n  // Allows incremental changes to allowed[]\n  function increaseApproval(LibInterface.S storage s, address _spender, uint _addedValue)\n  public returns(bool) {\n    s.allowed[msg.sender][_spender] = SafeMath.add(s.allowed[msg.sender][_spender], _addedValue);\n    //emit Approval(msg.sender, _spender, s.allowed[msg.sender][_spender]);\n    return true;\n  }\n\n  function decreaseApproval(LibInterface.S storage s, address _spender, uint _subtractedValue)\n  public returns(bool) {\n    uint oldValue = s.allowed[msg.sender][_spender];\n    if (_subtractedValue > oldValue) {\n      s.allowed[msg.sender][_spender] = 0;\n    } else {\n      s.allowed[msg.sender][_spender] = SafeMath.sub(oldValue, _subtractedValue);\n    }\n    //emit Approval(msg.sender, _spender, s.allowed[msg.sender][_spender]);\n    return true;\n  }\n  // *************************************************************************\n  // ****************************** END ERC20 ******************************\n  // *************************************************************************\n}\n",
  "sourcePath": "/Users/clay/projects/solidity-proxy/contracts/SnekCoin0_0_1.sol",
  "compiler": {
    "name": "solc",
    "version": "0.4.24+commit.e67f0147.Emscripten.clang"
  },
  "schemaVersion": "2.0.1",
  "updatedAt": "2018-11-06T12:55:24.351Z"
}