{
  "contractName": "SnekCoinBack",
  "abi": [
    {
      "constant": true,
      "inputs": [],
      "name": "s",
      "outputs": [
        {
          "name": "creationTime",
          "type": "uint256"
        },
        {
          "name": "weiPriceToMine",
          "type": "uint256"
        },
        {
          "name": "snekPriceToMine",
          "type": "uint256"
        },
        {
          "name": "owner",
          "type": "address"
        },
        {
          "name": "root",
          "type": "address"
        },
        {
          "name": "snekCurrentVersion",
          "type": "address"
        },
        {
          "name": "newTotalSupply",
          "type": "uint256"
        },
        {
          "name": "totalSupp",
          "type": "uint256"
        },
        {
          "name": "name",
          "type": "bytes32"
        },
        {
          "name": "decimals",
          "type": "uint8"
        }
      ],
      "payable": false,
      "stateMutability": "view",
      "type": "function"
    },
    {
      "constant": true,
      "inputs": [],
      "name": "owner",
      "outputs": [
        {
          "name": "",
          "type": "address"
        }
      ],
      "payable": false,
      "stateMutability": "view",
      "type": "function"
    },
    {
      "constant": false,
      "inputs": [
        {
          "name": "newOwner",
          "type": "address"
        }
      ],
      "name": "changeOwner",
      "outputs": [],
      "payable": false,
      "stateMutability": "nonpayable",
      "type": "function"
    },
    {
      "inputs": [
        {
          "name": "nm",
          "type": "bytes32"
        },
        {
          "name": "dec",
          "type": "uint8"
        },
        {
          "name": "ts",
          "type": "uint256"
        }
      ],
      "payable": false,
      "stateMutability": "nonpayable",
      "type": "constructor"
    },
    {
      "constant": true,
      "inputs": [],
      "name": "getBackSender",
      "outputs": [
        {
          "name": "",
          "type": "address"
        }
      ],
      "payable": false,
      "stateMutability": "view",
      "type": "function"
    },
    {
      "constant": true,
      "inputs": [],
      "name": "getSender",
      "outputs": [
        {
          "name": "",
          "type": "address"
        }
      ],
      "payable": false,
      "stateMutability": "view",
      "type": "function"
    },
    {
      "constant": false,
      "inputs": [
        {
          "name": "root",
          "type": "address"
        }
      ],
      "name": "setRoot",
      "outputs": [
        {
          "name": "",
          "type": "uint256"
        }
      ],
      "payable": false,
      "stateMutability": "nonpayable",
      "type": "function"
    },
    {
      "constant": true,
      "inputs": [],
      "name": "getRoot",
      "outputs": [
        {
          "name": "",
          "type": "address"
        }
      ],
      "payable": false,
      "stateMutability": "view",
      "type": "function"
    },
    {
      "constant": false,
      "inputs": [
        {
          "name": "newOwner",
          "type": "address"
        }
      ],
      "name": "setOwner",
      "outputs": [
        {
          "name": "",
          "type": "bool"
        }
      ],
      "payable": false,
      "stateMutability": "nonpayable",
      "type": "function"
    },
    {
      "constant": true,
      "inputs": [],
      "name": "getOwner",
      "outputs": [
        {
          "name": "",
          "type": "address"
        }
      ],
      "payable": false,
      "stateMutability": "view",
      "type": "function"
    },
    {
      "constant": false,
      "inputs": [
        {
          "name": "amount",
          "type": "uint256"
        }
      ],
      "name": "changeMiningPrice",
      "outputs": [
        {
          "name": "",
          "type": "bool"
        }
      ],
      "payable": false,
      "stateMutability": "nonpayable",
      "type": "function"
    },
    {
      "constant": false,
      "inputs": [
        {
          "name": "amount",
          "type": "uint256"
        }
      ],
      "name": "changeMiningSnekPrice",
      "outputs": [
        {
          "name": "",
          "type": "bool"
        }
      ],
      "payable": false,
      "stateMutability": "nonpayable",
      "type": "function"
    },
    {
      "constant": true,
      "inputs": [],
      "name": "getMiningPrice",
      "outputs": [
        {
          "name": "",
          "type": "uint256"
        }
      ],
      "payable": false,
      "stateMutability": "view",
      "type": "function"
    },
    {
      "constant": true,
      "inputs": [],
      "name": "getMiningSnekPrice",
      "outputs": [
        {
          "name": "",
          "type": "uint256"
        }
      ],
      "payable": false,
      "stateMutability": "view",
      "type": "function"
    },
    {
      "constant": false,
      "inputs": [
        {
          "name": "signedMessage",
          "type": "bytes32"
        },
        {
          "name": "sigV",
          "type": "uint8"
        },
        {
          "name": "sigR",
          "type": "bytes32"
        },
        {
          "name": "sigS",
          "type": "bytes32"
        },
        {
          "name": "sender",
          "type": "address"
        },
        {
          "name": "value",
          "type": "uint256"
        }
      ],
      "name": "mine",
      "outputs": [
        {
          "name": "",
          "type": "uint256"
        }
      ],
      "payable": false,
      "stateMutability": "nonpayable",
      "type": "function"
    },
    {
      "constant": false,
      "inputs": [
        {
          "name": "signedMessage",
          "type": "bytes32"
        },
        {
          "name": "sigV",
          "type": "uint8"
        },
        {
          "name": "sigR",
          "type": "bytes32"
        },
        {
          "name": "sigS",
          "type": "bytes32"
        },
        {
          "name": "sender",
          "type": "address"
        },
        {
          "name": "payAmount",
          "type": "uint256"
        }
      ],
      "name": "mineWithSnek",
      "outputs": [
        {
          "name": "",
          "type": "uint256"
        }
      ],
      "payable": false,
      "stateMutability": "nonpayable",
      "type": "function"
    },
    {
      "constant": true,
      "inputs": [
        {
          "name": "who",
          "type": "address"
        }
      ],
      "name": "getUserNonce",
      "outputs": [
        {
          "name": "",
          "type": "uint32"
        }
      ],
      "payable": false,
      "stateMutability": "view",
      "type": "function"
    },
    {
      "constant": true,
      "inputs": [],
      "name": "totalSupply",
      "outputs": [
        {
          "name": "",
          "type": "uint256"
        }
      ],
      "payable": false,
      "stateMutability": "view",
      "type": "function"
    },
    {
      "constant": true,
      "inputs": [
        {
          "name": "tokenOwner",
          "type": "address"
        }
      ],
      "name": "balanceOf",
      "outputs": [
        {
          "name": "",
          "type": "uint256"
        }
      ],
      "payable": false,
      "stateMutability": "view",
      "type": "function"
    },
    {
      "constant": true,
      "inputs": [
        {
          "name": "tokenOwner",
          "type": "address"
        },
        {
          "name": "spender",
          "type": "address"
        }
      ],
      "name": "allowance",
      "outputs": [
        {
          "name": "",
          "type": "uint256"
        }
      ],
      "payable": false,
      "stateMutability": "view",
      "type": "function"
    },
    {
      "constant": false,
      "inputs": [
        {
          "name": "to",
          "type": "address"
        },
        {
          "name": "tokens",
          "type": "uint256"
        },
        {
          "name": "sender",
          "type": "address"
        }
      ],
      "name": "transfer",
      "outputs": [
        {
          "name": "",
          "type": "bool"
        }
      ],
      "payable": false,
      "stateMutability": "nonpayable",
      "type": "function"
    },
    {
      "constant": false,
      "inputs": [
        {
          "name": "spender",
          "type": "address"
        },
        {
          "name": "tokens",
          "type": "uint256"
        },
        {
          "name": "sender",
          "type": "address"
        }
      ],
      "name": "approve",
      "outputs": [
        {
          "name": "",
          "type": "bool"
        }
      ],
      "payable": false,
      "stateMutability": "nonpayable",
      "type": "function"
    },
    {
      "constant": false,
      "inputs": [
        {
          "name": "from",
          "type": "address"
        },
        {
          "name": "to",
          "type": "address"
        },
        {
          "name": "tokens",
          "type": "uint256"
        },
        {
          "name": "sender",
          "type": "address"
        }
      ],
      "name": "transferFrom",
      "outputs": [
        {
          "name": "",
          "type": "bool"
        }
      ],
      "payable": false,
      "stateMutability": "nonpayable",
      "type": "function"
    }
  ],
  "bytecode": "0x6080604052336000806101000a81548173ffffffffffffffffffffffffffffffffffffffff021916908373ffffffffffffffffffffffffffffffffffffffff16021790555034801561005057600080fd5b506040516060806123eb8339810180604052810190808051906020019092919080519060200190929190805190602001909291905050508260016009018160001916905550816001600a0160006101000a81548160ff021916908360ff160217905550806001600801819055508060016007018190555033600160030160006101000a81548173ffffffffffffffffffffffffffffffffffffffff021916908373ffffffffffffffffffffffffffffffffffffffff16021790555030600160040160006101000a81548173ffffffffffffffffffffffffffffffffffffffff021916908373ffffffffffffffffffffffffffffffffffffffff16021790555064e8d4a510006001800181905550620f424060016002018190555050505061226f8061017c6000396000f300608060405260043610610127576000357c0100000000000000000000000000000000000000000000000000000000900463ffffffff1680623ba1ed1461012c5780631271f09a1461018357806313af4035146102085780631529aeb71461026357806318160ddd146102a8578063319fe1b2146102d3578063569b26ef1461032a5780635ca1e165146103c25780635e01eb5a146104195780635fc9309c146104705780636834e3a81461051557806370a08231146105785780637462e065146105cf57806374e36917146105fa57806386b714e214610692578063893d20e81461078e5780638da5cb5b146107e5578063a6f9dae11461083c578063dbba0f011461087f578063dd62ed3e14610904578063e98a92901461097b578063fdb8bb84146109a6575b600080fd5b34801561013857600080fd5b5061016d600480360381019080803573ffffffffffffffffffffffffffffffffffffffff1690602001909291905050506109eb565b6040518082815260200191505060405180910390f35b34801561018f57600080fd5b506101ee600480360381019080803573ffffffffffffffffffffffffffffffffffffffff16906020019092919080359060200190929190803573ffffffffffffffffffffffffffffffffffffffff169060200190929190505050610c65565b604051808215151515815260200191505060405180910390f35b34801561021457600080fd5b50610249600480360381019080803573ffffffffffffffffffffffffffffffffffffffff169060200190929190505050610d89565b604051808215151515815260200191505060405180910390f35b34801561026f57600080fd5b5061028e60048036038101908080359060200190929190505050610ef7565b604051808215151515815260200191505060405180910390f35b3480156102b457600080fd5b506102bd6110d8565b6040518082815260200191505060405180910390f35b3480156102df57600080fd5b506102e8611188565b604051808273ffffffffffffffffffffffffffffffffffffffff1673ffffffffffffffffffffffffffffffffffffffff16815260200191505060405180910390f35b34801561033657600080fd5b506103ac6004803603810190808035600019169060200190929190803560ff16906020019092919080356000191690602001909291908035600019169060200190929190803573ffffffffffffffffffffffffffffffffffffffff16906020019092919080359060200190929190505050611190565b6040518082815260200191505060405180910390f35b3480156103ce57600080fd5b506103d76113e8565b604051808273ffffffffffffffffffffffffffffffffffffffff1673ffffffffffffffffffffffffffffffffffffffff16815260200191505060405180910390f35b34801561042557600080fd5b5061042e611415565b604051808273ffffffffffffffffffffffffffffffffffffffff1673ffffffffffffffffffffffffffffffffffffffff16815260200191505060405180910390f35b34801561047c57600080fd5b506104fb600480360381019080803573ffffffffffffffffffffffffffffffffffffffff169060200190929190803573ffffffffffffffffffffffffffffffffffffffff16906020019092919080359060200190929190803573ffffffffffffffffffffffffffffffffffffffff1690602001909291905050506114c5565b604051808215151515815260200191505060405180910390f35b34801561052157600080fd5b50610556600480360381019080803573ffffffffffffffffffffffffffffffffffffffff16906020019092919050505061161e565b604051808263ffffffff1663ffffffff16815260200191505060405180910390f35b34801561058457600080fd5b506105b9600480360381019080803573ffffffffffffffffffffffffffffffffffffffff169060200190929190505050611704565b6040518082815260200191505060405180910390f35b3480156105db57600080fd5b506105e46117ea565b6040518082815260200191505060405180910390f35b34801561060657600080fd5b5061067c6004803603810190808035600019169060200190929190803560ff16906020019092919080356000191690602001909291908035600019169060200190929190803573ffffffffffffffffffffffffffffffffffffffff1690602001909291908035906020019092919050505061189a565b6040518082815260200191505060405180910390f35b34801561069e57600080fd5b506106a7611af2565b604051808b81526020018a81526020018981526020018873ffffffffffffffffffffffffffffffffffffffff1673ffffffffffffffffffffffffffffffffffffffff1681526020018773ffffffffffffffffffffffffffffffffffffffff1673ffffffffffffffffffffffffffffffffffffffff1681526020018673ffffffffffffffffffffffffffffffffffffffff1673ffffffffffffffffffffffffffffffffffffffff16815260200185815260200184815260200183600019166000191681526020018260ff1660ff1681526020019a505050505050505050505060405180910390f35b34801561079a57600080fd5b506107a3611ba1565b604051808273ffffffffffffffffffffffffffffffffffffffff1673ffffffffffffffffffffffffffffffffffffffff16815260200191505060405180910390f35b3480156107f157600080fd5b506107fa611bce565b604051808273ffffffffffffffffffffffffffffffffffffffff1673ffffffffffffffffffffffffffffffffffffffff16815260200191505060405180910390f35b34801561084857600080fd5b5061087d600480360381019080803573ffffffffffffffffffffffffffffffffffffffff169060200190929190505050611bf3565b005b34801561088b57600080fd5b506108ea600480360381019080803573ffffffffffffffffffffffffffffffffffffffff16906020019092919080359060200190929190803573ffffffffffffffffffffffffffffffffffffffff169060200190929190505050611d55565b604051808215151515815260200191505060405180910390f35b34801561091057600080fd5b50610965600480360381019080803573ffffffffffffffffffffffffffffffffffffffff169060200190929190803573ffffffffffffffffffffffffffffffffffffffff169060200190929190505050611e79565b6040518082815260200191505060405180910390f35b34801561098757600080fd5b50610990611f94565b6040518082815260200191505060405180910390f35b3480156109b257600080fd5b506109d160048036038101908080359060200190929190505050612044565b604051808215151515815260200191505060405180910390f35b6000806000809054906101000a900473ffffffffffffffffffffffffffffffffffffffff16600160040160009054906101000a900473ffffffffffffffffffffffffffffffffffffffff168173ffffffffffffffffffffffffffffffffffffffff163373ffffffffffffffffffffffffffffffffffffffff161480610a9b57508073ffffffffffffffffffffffffffffffffffffffff163373ffffffffffffffffffffffffffffffffffffffff16145b1515610b0f576040517f08c379a00000000000000000000000000000000000000000000000000000000081526004018080602001828103825260168152602001807f53656e646572206e6f7420617574686f72697a65642e0000000000000000000081525060200191505060405180910390fd5b84600160040160006101000a81548173ffffffffffffffffffffffffffffffffffffffff021916908373ffffffffffffffffffffffffffffffffffffffff16021790555060006001600701541115610c58576001600701549250610bda6001600b016000600160030160009054906101000a900473ffffffffffffffffffffffffffffffffffffffff1673ffffffffffffffffffffffffffffffffffffffff1673ffffffffffffffffffffffffffffffffffffffff1681526020019081526020016000205484612225565b6001600b016000600160030160009054906101000a900473ffffffffffffffffffffffffffffffffffffffff1673ffffffffffffffffffffffffffffffffffffffff1673ffffffffffffffffffffffffffffffffffffffff168152602001908152602001600020819055506000600160070181905550829350610c5d565b600093505b505050919050565b6000600173__LibInterface__________________________63e77176e890918686866040518563ffffffff167c0100000000000000000000000000000000000000000000000000000000028152600401808581526020018473ffffffffffffffffffffffffffffffffffffffff1673ffffffffffffffffffffffffffffffffffffffff1681526020018381526020018273ffffffffffffffffffffffffffffffffffffffff1673ffffffffffffffffffffffffffffffffffffffff16815260200194505050505060206040518083038186803b158015610d4557600080fd5b505af4158015610d59573d6000803e3d6000fd5b505050506040513d6020811015610d6f57600080fd5b810190808051906020019092919050505090509392505050565b60008060009054906101000a900473ffffffffffffffffffffffffffffffffffffffff16600160040160009054906101000a900473ffffffffffffffffffffffffffffffffffffffff168173ffffffffffffffffffffffffffffffffffffffff163373ffffffffffffffffffffffffffffffffffffffff161480610e3857508073ffffffffffffffffffffffffffffffffffffffff163373ffffffffffffffffffffffffffffffffffffffff16145b1515610eac576040517f08c379a00000000000000000000000000000000000000000000000000000000081526004018080602001828103825260168152602001807f53656e646572206e6f7420617574686f72697a65642e0000000000000000000081525060200191505060405180910390fd5b83600160030160006101000a81548173ffffffffffffffffffffffffffffffffffffffff021916908373ffffffffffffffffffffffffffffffffffffffff1602179055505050919050565b6000600160040160009054906101000a900473ffffffffffffffffffffffffffffffffffffffff16600160040160009054906101000a900473ffffffffffffffffffffffffffffffffffffffff168173ffffffffffffffffffffffffffffffffffffffff163373ffffffffffffffffffffffffffffffffffffffff161480610faa57508073ffffffffffffffffffffffffffffffffffffffff163373ffffffffffffffffffffffffffffffffffffffff16145b151561101e576040517f08c379a00000000000000000000000000000000000000000000000000000000081526004018080602001828103825260168152602001807f53656e646572206e6f7420617574686f72697a65642e0000000000000000000081525060200191505060405180910390fd5b600173__LibInterface__________________________63c13873489091866040518363ffffffff167c0100000000000000000000000000000000000000000000000000000000028152600401808381526020018281526020019250505060206040518083038186803b15801561109457600080fd5b505af41580156110a8573d6000803e3d6000fd5b505050506040513d60208110156110be57600080fd5b810190808051906020019092919050505092505050919050565b6000600173__LibInterface__________________________63726eecb190916040518263ffffffff167c01000000000000000000000000000000000000000000000000000000000281526004018082815260200191505060206040518083038186803b15801561114857600080fd5b505af415801561115c573d6000803e3d6000fd5b505050506040513d602081101561117257600080fd5b8101908080519060200190929190505050905090565b600033905090565b6000600160040160009054906101000a900473ffffffffffffffffffffffffffffffffffffffff16600160040160009054906101000a900473ffffffffffffffffffffffffffffffffffffffff168173ffffffffffffffffffffffffffffffffffffffff163373ffffffffffffffffffffffffffffffffffffffff16148061124357508073ffffffffffffffffffffffffffffffffffffffff163373ffffffffffffffffffffffffffffffffffffffff16145b15156112b7576040517f08c379a00000000000000000000000000000000000000000000000000000000081526004018080602001828103825260168152602001807f53656e646572206e6f7420617574686f72697a65642e0000000000000000000081525060200191505060405180910390fd5b600173__LibInterface__________________________63d4445d0190918b8b8b8b8b8b6040518863ffffffff167c01000000000000000000000000000000000000000000000000000000000281526004018088815260200187600019166000191681526020018660ff1660ff168152602001856000191660001916815260200184600019166000191681526020018373ffffffffffffffffffffffffffffffffffffffff1673ffffffffffffffffffffffffffffffffffffffff16815260200182815260200197505050505050505060206040518083038186803b15801561139f57600080fd5b505af41580156113b3573d6000803e3d6000fd5b505050506040513d60208110156113c957600080fd5b8101908080519060200190929190505050925050509695505050505050565b6000600160040160009054906101000a900473ffffffffffffffffffffffffffffffffffffffff16905090565b6000600173__LibInterface__________________________63873b63f390916040518263ffffffff167c01000000000000000000000000000000000000000000000000000000000281526004018082815260200191505060206040518083038186803b15801561148557600080fd5b505af4158015611499573d6000803e3d6000fd5b505050506040513d60208110156114af57600080fd5b8101908080519060200190929190505050905090565b6000600173__LibInterface__________________________633053fdec9091878787876040518663ffffffff167c0100000000000000000000000000000000000000000000000000000000028152600401808681526020018573ffffffffffffffffffffffffffffffffffffffff1673ffffffffffffffffffffffffffffffffffffffff1681526020018473ffffffffffffffffffffffffffffffffffffffff1673ffffffffffffffffffffffffffffffffffffffff1681526020018381526020018273ffffffffffffffffffffffffffffffffffffffff1673ffffffffffffffffffffffffffffffffffffffff1681526020019550505050505060206040518083038186803b1580156115d957600080fd5b505af41580156115ed573d6000803e3d6000fd5b505050506040513d602081101561160357600080fd5b81019080805190602001909291905050509050949350505050565b6000600173__LibInterface__________________________63e0e660ef9091846040518363ffffffff167c0100000000000000000000000000000000000000000000000000000000028152600401808381526020018273ffffffffffffffffffffffffffffffffffffffff1673ffffffffffffffffffffffffffffffffffffffff1681526020019250505060206040518083038186803b1580156116c257600080fd5b505af41580156116d6573d6000803e3d6000fd5b505050506040513d60208110156116ec57600080fd5b81019080805190602001909291905050509050919050565b6000600173__LibInterface__________________________63c3fc280b9091846040518363ffffffff167c0100000000000000000000000000000000000000000000000000000000028152600401808381526020018273ffffffffffffffffffffffffffffffffffffffff1673ffffffffffffffffffffffffffffffffffffffff1681526020019250505060206040518083038186803b1580156117a857600080fd5b505af41580156117bc573d6000803e3d6000fd5b505050506040513d60208110156117d257600080fd5b81019080805190602001909291905050509050919050565b6000600173__LibInterface__________________________63ed1d493f90916040518263ffffffff167c01000000000000000000000000000000000000000000000000000000000281526004018082815260200191505060206040518083038186803b15801561185a57600080fd5b505af415801561186e573d6000803e3d6000fd5b505050506040513d602081101561188457600080fd5b8101908080519060200190929190505050905090565b6000600160040160009054906101000a900473ffffffffffffffffffffffffffffffffffffffff16600160040160009054906101000a900473ffffffffffffffffffffffffffffffffffffffff168173ffffffffffffffffffffffffffffffffffffffff163373ffffffffffffffffffffffffffffffffffffffff16148061194d57508073ffffffffffffffffffffffffffffffffffffffff163373ffffffffffffffffffffffffffffffffffffffff16145b15156119c1576040517f08c379a00000000000000000000000000000000000000000000000000000000081526004018080602001828103825260168152602001807f53656e646572206e6f7420617574686f72697a65642e0000000000000000000081525060200191505060405180910390fd5b600173__LibInterface__________________________639ce77e4c90918b8b8b8b8b8b6040518863ffffffff167c01000000000000000000000000000000000000000000000000000000000281526004018088815260200187600019166000191681526020018660ff1660ff168152602001856000191660001916815260200184600019166000191681526020018373ffffffffffffffffffffffffffffffffffffffff1673ffffffffffffffffffffffffffffffffffffffff16815260200182815260200197505050505050505060206040518083038186803b158015611aa957600080fd5b505af4158015611abd573d6000803e3d6000fd5b505050506040513d6020811015611ad357600080fd5b8101908080519060200190929190505050925050509695505050505050565b60018060000154908060010154908060020154908060030160009054906101000a900473ffffffffffffffffffffffffffffffffffffffff16908060040160009054906101000a900473ffffffffffffffffffffffffffffffffffffffff16908060050160009054906101000a900473ffffffffffffffffffffffffffffffffffffffff169080600701549080600801549080600901549080600a0160009054906101000a900460ff1690508a565b6000600160030160009054906101000a900473ffffffffffffffffffffffffffffffffffffffff16905090565b6000809054906101000a900473ffffffffffffffffffffffffffffffffffffffff1681565b6000809054906101000a900473ffffffffffffffffffffffffffffffffffffffff166000809054906101000a900473ffffffffffffffffffffffffffffffffffffffff168173ffffffffffffffffffffffffffffffffffffffff163373ffffffffffffffffffffffffffffffffffffffff161480611c9c57508073ffffffffffffffffffffffffffffffffffffffff163373ffffffffffffffffffffffffffffffffffffffff16145b1515611d10576040517f08c379a00000000000000000000000000000000000000000000000000000000081526004018080602001828103825260168152602001807f53656e646572206e6f7420617574686f72697a65642e0000000000000000000081525060200191505060405180910390fd5b826000806101000a81548173ffffffffffffffffffffffffffffffffffffffff021916908373ffffffffffffffffffffffffffffffffffffffff160217905550505050565b6000600173__LibInterface__________________________63c266bd3a90918686866040518563ffffffff167c0100000000000000000000000000000000000000000000000000000000028152600401808581526020018473ffffffffffffffffffffffffffffffffffffffff1673ffffffffffffffffffffffffffffffffffffffff1681526020018381526020018273ffffffffffffffffffffffffffffffffffffffff1673ffffffffffffffffffffffffffffffffffffffff16815260200194505050505060206040518083038186803b158015611e3557600080fd5b505af4158015611e49573d6000803e3d6000fd5b505050506040513d6020811015611e5f57600080fd5b810190808051906020019092919050505090509392505050565b6000600173__LibInterface__________________________63f11d2c04909185856040518463ffffffff167c0100000000000000000000000000000000000000000000000000000000028152600401808481526020018373ffffffffffffffffffffffffffffffffffffffff1673ffffffffffffffffffffffffffffffffffffffff1681526020018273ffffffffffffffffffffffffffffffffffffffff1673ffffffffffffffffffffffffffffffffffffffff168152602001935050505060206040518083038186803b158015611f5157600080fd5b505af4158015611f65573d6000803e3d6000fd5b505050506040513d6020811015611f7b57600080fd5b8101908080519060200190929190505050905092915050565b6000600173__LibInterface__________________________636a9e0e2890916040518263ffffffff167c01000000000000000000000000000000000000000000000000000000000281526004018082815260200191505060206040518083038186803b15801561200457600080fd5b505af4158015612018573d6000803e3d6000fd5b505050506040513d602081101561202e57600080fd5b8101908080519060200190929190505050905090565b6000600160040160009054906101000a900473ffffffffffffffffffffffffffffffffffffffff16600160040160009054906101000a900473ffffffffffffffffffffffffffffffffffffffff168173ffffffffffffffffffffffffffffffffffffffff163373ffffffffffffffffffffffffffffffffffffffff1614806120f757508073ffffffffffffffffffffffffffffffffffffffff163373ffffffffffffffffffffffffffffffffffffffff16145b151561216b576040517f08c379a00000000000000000000000000000000000000000000000000000000081526004018080602001828103825260168152602001807f53656e646572206e6f7420617574686f72697a65642e0000000000000000000081525060200191505060405180910390fd5b600173__LibInterface__________________________639a5a1f419091866040518363ffffffff167c0100000000000000000000000000000000000000000000000000000000028152600401808381526020018281526020019250505060206040518083038186803b1580156121e157600080fd5b505af41580156121f5573d6000803e3d6000fd5b505050506040513d602081101561220b57600080fd5b810190808051906020019092919050505092505050919050565b600080828401905083811015151561223957fe5b80915050929150505600a165627a7a7230582021f51afdd9998b758f8224ddc6545b56be5457d4b34078634e4f2ab40add3c090029",
  "source": "pragma solidity ^0.4.10;\n\nimport \"./LibInterface.sol\";\nimport \"./lib/Ownable.sol\";\n//import \"./PayableLib.sol\";\n\n// Just strips msg.value so lib can be called.\ncontract SnekCoinBack is Ownable {\n  LibInterface.S public s;\n  using LibInterface for LibInterface.S;\n  //using snekCurrentVersion for address;\n  /* struct LibInterface.S {\n    uint256 creationTime;\n    uint256 weiPriceToMine;\n    uint256 snekPriceToMine;\n    address owner;\n    address root; //The Token contract which must be used for payable functions\n    address snekCurrentVersion;\n    mapping (address => uint32) allowanceNonces;\n    uint256 newTotalSupply;\n    // ****** BEGIN ERC20 ******\n    uint256 totalSupp;\n    bytes32 name;\n    uint8 decimals;\n    mapping (address => uint256) balances;\n    mapping (address => mapping (address => uint256)) allowed;\n    // ****** END ERC20 ******\n  } */\n  constructor(bytes32 nm, uint8 dec, uint256 ts) public {\n    s.name = nm;\n    s.decimals = dec;\n    //s.balances[msg.sender] = ts;\n    s.totalSupp = ts;\n    s.newTotalSupply = ts;\n    s.owner = msg.sender;\n    s.root = address(this);\n    s.weiPriceToMine = 1000000000000; // 0.000001 ETH\n    s.snekPriceToMine = 1000000; // 0.000001 ETH\n  }\n\n  // ****** BEGIN TEST FUNCTIONS ******\n  function getBackSender()\n  public constant returns(address){\n    return msg.sender;\n  }\n  function getSender()\n  public constant returns(address){\n    return s.getSender();\n  }\n  // ****** END TEST FUNCTIONS ******\n\n  // ****** BEGIN BASIC FUNCTIONS ******\n  function setRoot(address root)\n  public onlyBy(owner, s.root) returns(uint256){\n    s.root = root;\n    if(s.newTotalSupply > 0) {\n      uint256 newSupply = s.newTotalSupply;\n      //s.balances[s.owner] = newSupply;\n      s.balances[s.owner] = SafeMath.add(s.balances[s.owner], newSupply);\n      s.newTotalSupply = 0;\n      return newSupply;\n    }\n    return 0;\n  }\n  function getRoot()\n  public view returns(address){\n    return s.root;\n  }\n  function setOwner(address newOwner)\n  public onlyBy(owner, s.root) returns(bool){\n    s.owner = newOwner;\n  }\n  function getOwner()\n  public view returns(address){\n    return s.owner;\n  }\n  // ****** END BASIC FUNCTIONS ******\n\n  // ****** BEGIN CONTRACT BUSINESS FUNCTIONS ******\n\n  function changeMiningPrice(uint256 amount)\n  public onlyBy(s.root, s.root) returns(bool){\n    return s.changeMiningPrice(amount);\n  }\n\n  function changeMiningSnekPrice(uint256 amount)\n  public onlyBy(s.root, s.root) returns(bool){\n    return s.changeMiningSnekPrice(amount);\n  }\n\n  function getMiningPrice()\n  public view returns(uint256){\n    return s.getMiningPrice();\n  }\n  function getMiningSnekPrice()\n  public view returns(uint256){\n    return s.getMiningSnekPrice();\n  }\n\n  //function mine(uint256 amount, address sender, uint256 value)\n  function mine(bytes32 signedMessage, uint8 sigV, bytes32 sigR, bytes32 sigS, address sender, uint256 value)\n  public onlyBy(s.root, s.root) returns(uint256) {\n    return s.mine(signedMessage, sigV, sigR, sigS, sender, value);\n  }\n  function mineWithSnek(bytes32 signedMessage, uint8 sigV, bytes32 sigR, bytes32 sigS, address sender, uint256 payAmount)\n  public onlyBy(s.root, s.root) returns(uint256) {\n    return s.mineWithSnek(signedMessage, sigV, sigR, sigS, sender, payAmount);\n  }\n  function getUserNonce(address who)\n  public view returns(uint32){\n    return s.getUserNonce(who);\n  }\n  // ****** END CONTRACT BUSINESS FUNCTIONS ******\n\n  // ****** BEGIN ERC20 ******\n  function totalSupply() public view returns(uint256){\n    return s.totalSupply();\n  }\n  function balanceOf(address tokenOwner) public view returns(uint256){\n    return s.balanceOf(tokenOwner);\n  }\n  function allowance(address tokenOwner, address spender) public view returns(uint256){\n    return s.allowance(tokenOwner, spender);\n  }\n  function transfer(address to, uint tokens, address sender) public returns(bool){\n    return s.transfer(to, tokens, sender);\n  }\n  function approve(address spender, uint tokens, address sender) public returns(bool){\n    return s.approve(spender, tokens, sender);\n  }\n  function transferFrom(address from, address to, uint tokens, address sender) public returns(bool){\n    return s.transferFrom(from, to, tokens, sender);\n  }\n  // ****** END ERC20 ******\n}\n",
  "sourcePath": "/Users/clay/projects/snekCoin/contracts/SnekCoinBack.sol",
  "compiler": {
    "name": "solc",
    "version": "0.4.24+commit.e67f0147.Emscripten.clang"
  },
  "schemaVersion": "2.0.1",
  "updatedAt": "2019-01-07T07:13:41.862Z"
}