{
  "contractName": "SnekCoin0_0_1",
  "abi": [
    {
      "constant": true,
      "inputs": [
        {
          "name": "s",
          "type": "LibInterface.S storage"
        }
      ],
      "name": "getSender",
      "outputs": [
        {
          "name": "",
          "type": "address"
        }
      ],
      "payable": false,
      "stateMutability": "view",
      "type": "function"
    },
    {
      "constant": false,
      "inputs": [
        {
          "name": "s",
          "type": "LibInterface.S storage"
        },
        {
          "name": "amount",
          "type": "uint256"
        }
      ],
      "name": "changeMiningPrice",
      "outputs": [
        {
          "name": "",
          "type": "bool"
        }
      ],
      "payable": false,
      "stateMutability": "nonpayable",
      "type": "function"
    },
    {
      "constant": false,
      "inputs": [
        {
          "name": "s",
          "type": "LibInterface.S storage"
        },
        {
          "name": "amount",
          "type": "uint256"
        }
      ],
      "name": "changeMiningSnekPrice",
      "outputs": [
        {
          "name": "",
          "type": "bool"
        }
      ],
      "payable": false,
      "stateMutability": "nonpayable",
      "type": "function"
    },
    {
      "constant": true,
      "inputs": [
        {
          "name": "s",
          "type": "LibInterface.S storage"
        }
      ],
      "name": "getMiningPrice",
      "outputs": [
        {
          "name": "",
          "type": "uint256"
        }
      ],
      "payable": false,
      "stateMutability": "view",
      "type": "function"
    },
    {
      "constant": true,
      "inputs": [
        {
          "name": "s",
          "type": "LibInterface.S storage"
        }
      ],
      "name": "getMiningSnekPrice",
      "outputs": [
        {
          "name": "",
          "type": "uint256"
        }
      ],
      "payable": false,
      "stateMutability": "view",
      "type": "function"
    },
    {
      "constant": false,
      "inputs": [
        {
          "name": "s",
          "type": "LibInterface.S storage"
        },
        {
          "name": "signedMessage",
          "type": "bytes32"
        },
        {
          "name": "sigV",
          "type": "uint8"
        },
        {
          "name": "sigR",
          "type": "bytes32"
        },
        {
          "name": "sigS",
          "type": "bytes32"
        },
        {
          "name": "sender",
          "type": "address"
        },
        {
          "name": "value",
          "type": "uint256"
        }
      ],
      "name": "mine",
      "outputs": [
        {
          "name": "",
          "type": "bool"
        }
      ],
      "payable": false,
      "stateMutability": "nonpayable",
      "type": "function"
    },
    {
      "constant": false,
      "inputs": [
        {
          "name": "s",
          "type": "LibInterface.S storage"
        },
        {
          "name": "signedMessage",
          "type": "bytes32"
        },
        {
          "name": "sigV",
          "type": "uint8"
        },
        {
          "name": "sigR",
          "type": "bytes32"
        },
        {
          "name": "sigS",
          "type": "bytes32"
        },
        {
          "name": "sender",
          "type": "address"
        },
        {
          "name": "payAmount",
          "type": "uint256"
        }
      ],
      "name": "mineWithSnek",
      "outputs": [
        {
          "name": "",
          "type": "bool"
        }
      ],
      "payable": false,
      "stateMutability": "nonpayable",
      "type": "function"
    },
    {
      "constant": true,
      "inputs": [
        {
          "name": "s",
          "type": "LibInterface.S storage"
        },
        {
          "name": "who",
          "type": "address"
        }
      ],
      "name": "getUserNonce",
      "outputs": [
        {
          "name": "",
          "type": "uint32"
        }
      ],
      "payable": false,
      "stateMutability": "view",
      "type": "function"
    },
    {
      "constant": true,
      "inputs": [
        {
          "name": "s",
          "type": "LibInterface.S storage"
        }
      ],
      "name": "totalSupply",
      "outputs": [
        {
          "name": "",
          "type": "uint256"
        }
      ],
      "payable": false,
      "stateMutability": "view",
      "type": "function"
    },
    {
      "constant": true,
      "inputs": [
        {
          "name": "s",
          "type": "LibInterface.S storage"
        },
        {
          "name": "_owner",
          "type": "address"
        }
      ],
      "name": "balanceOf",
      "outputs": [
        {
          "name": "",
          "type": "uint256"
        }
      ],
      "payable": false,
      "stateMutability": "view",
      "type": "function"
    },
    {
      "constant": true,
      "inputs": [
        {
          "name": "s",
          "type": "LibInterface.S storage"
        },
        {
          "name": "_owner",
          "type": "address"
        },
        {
          "name": "_spender",
          "type": "address"
        }
      ],
      "name": "allowance",
      "outputs": [
        {
          "name": "",
          "type": "uint256"
        }
      ],
      "payable": false,
      "stateMutability": "view",
      "type": "function"
    },
    {
      "constant": false,
      "inputs": [
        {
          "name": "s",
          "type": "LibInterface.S storage"
        },
        {
          "name": "_to",
          "type": "address"
        },
        {
          "name": "_value",
          "type": "uint256"
        },
        {
          "name": "sender",
          "type": "address"
        }
      ],
      "name": "transfer",
      "outputs": [
        {
          "name": "",
          "type": "bool"
        }
      ],
      "payable": false,
      "stateMutability": "nonpayable",
      "type": "function"
    },
    {
      "constant": false,
      "inputs": [
        {
          "name": "s",
          "type": "LibInterface.S storage"
        },
        {
          "name": "_from",
          "type": "address"
        },
        {
          "name": "_to",
          "type": "address"
        },
        {
          "name": "_value",
          "type": "uint256"
        },
        {
          "name": "sender",
          "type": "address"
        }
      ],
      "name": "transferFrom",
      "outputs": [
        {
          "name": "",
          "type": "bool"
        }
      ],
      "payable": false,
      "stateMutability": "nonpayable",
      "type": "function"
    },
    {
      "constant": false,
      "inputs": [
        {
          "name": "s",
          "type": "LibInterface.S storage"
        },
        {
          "name": "_spender",
          "type": "address"
        },
        {
          "name": "_value",
          "type": "uint256"
        },
        {
          "name": "sender",
          "type": "address"
        }
      ],
      "name": "approve",
      "outputs": [
        {
          "name": "",
          "type": "bool"
        }
      ],
      "payable": false,
      "stateMutability": "nonpayable",
      "type": "function"
    },
    {
      "constant": false,
      "inputs": [
        {
          "name": "s",
          "type": "LibInterface.S storage"
        },
        {
          "name": "_spender",
          "type": "address"
        },
        {
          "name": "_addedValue",
          "type": "uint256"
        }
      ],
      "name": "increaseApproval",
      "outputs": [
        {
          "name": "",
          "type": "bool"
        }
      ],
      "payable": false,
      "stateMutability": "nonpayable",
      "type": "function"
    },
    {
      "constant": false,
      "inputs": [
        {
          "name": "s",
          "type": "LibInterface.S storage"
        },
        {
          "name": "_spender",
          "type": "address"
        },
        {
          "name": "_subtractedValue",
          "type": "uint256"
        }
      ],
      "name": "decreaseApproval",
      "outputs": [
        {
          "name": "",
          "type": "bool"
        }
      ],
      "payable": false,
      "stateMutability": "nonpayable",
      "type": "function"
    }
  ],
  "bytecode": "0x612557610030600b82828239805160001a6073146000811461002057610022565bfe5b5030600052607381538281f30073000000000000000000000000000000000000000030146080604052600436106100fd576000357c0100000000000000000000000000000000000000000000000000000000900463ffffffff1680633053fdec146101025780636a9e0e28146101b1578063726eecb1146101e5578063873b63f3146102195780639a5a1f41146102795780639ce77e4c146102c8578063ab62d8511461036e578063c1387348146103dd578063c266bd3a1461042c578063c3fc280b146104bb578063d4445d011461050f578063e0e660ef146105b5578063e77176e814610615578063ed1d493f146106a4578063ed324a2d146106d8578063f11d2c0414610747575b600080fd5b81801561010e57600080fd5b5061019760048036038101908080359060200190929190803573ffffffffffffffffffffffffffffffffffffffff169060200190929190803573ffffffffffffffffffffffffffffffffffffffff16906020019092919080359060200190929190803573ffffffffffffffffffffffffffffffffffffffff1690602001909291905050506107bb565b604051808215151515815260200191505060405180910390f35b6101cf60048036038101908080359060200190929190505050610b0c565b6040518082815260200191505060405180910390f35b61020360048036038101908080359060200190929190505050610c3f565b6040518082815260200191505060405180910390f35b61023760048036038101908080359060200190929190505050610c4d565b604051808273ffffffffffffffffffffffffffffffffffffffff1673ffffffffffffffffffffffffffffffffffffffff16815260200191505060405180910390f35b81801561028557600080fd5b506102ae6004803603810190808035906020019092919080359060200190929190505050610c57565b604051808215151515815260200191505060405180910390f35b8180156102d457600080fd5b50610354600480360381019080803590602001909291908035600019169060200190929190803560ff16906020019092919080356000191690602001909291908035600019169060200190929190803573ffffffffffffffffffffffffffffffffffffffff16906020019092919080359060200190929190505050610d8d565b604051808215151515815260200191505060405180910390f35b81801561037a57600080fd5b506103c360048036038101908080359060200190929190803573ffffffffffffffffffffffffffffffffffffffff16906020019092919080359060200190929190505050611559565b604051808215151515815260200191505060405180910390f35b8180156103e957600080fd5b506104126004803603810190808035906020019092919080359060200190929190505050611670565b604051808215151515815260200191505060405180910390f35b81801561043857600080fd5b506104a160048036038101908080359060200190929190803573ffffffffffffffffffffffffffffffffffffffff16906020019092919080359060200190929190803573ffffffffffffffffffffffffffffffffffffffff1690602001909291905050506117a6565b604051808215151515815260200191505060405180910390f35b6104f960048036038101908080359060200190929190803573ffffffffffffffffffffffffffffffffffffffff16906020019092919050505061195f565b6040518082815260200191505060405180910390f35b81801561051b57600080fd5b5061059b600480360381019080803590602001909291908035600019169060200190929190803560ff16906020019092919080356000191690602001909291908035600019169060200190929190803573ffffffffffffffffffffffffffffffffffffffff169060200190929190803590602001909291905050506119ab565b604051808215151515815260200191505060405180910390f35b6105f360048036038101908080359060200190929190803573ffffffffffffffffffffffffffffffffffffffff16906020019092919050505061209c565b604051808263ffffffff1663ffffffff16815260200191505060405180910390f35b81801561062157600080fd5b5061068a60048036038101908080359060200190929190803573ffffffffffffffffffffffffffffffffffffffff16906020019092919080359060200190929190803573ffffffffffffffffffffffffffffffffffffffff1690602001909291905050506120f8565b604051808215151515815260200191505060405180910390f35b6106c260048036038101908080359060200190929190505050612189565b6040518082815260200191505060405180910390f35b8180156106e457600080fd5b5061072d60048036038101908080359060200190929190803573ffffffffffffffffffffffffffffffffffffffff169060200190929190803590602001909291905050506122bc565b604051808215151515815260200191505060405180910390f35b6107a560048036038101908080359060200190929190803573ffffffffffffffffffffffffffffffffffffffff169060200190929190803573ffffffffffffffffffffffffffffffffffffffff16906020019092919050505061246a565b6040518082815260200191505060405180910390f35b60008073ffffffffffffffffffffffffffffffffffffffff168473ffffffffffffffffffffffffffffffffffffffff16141515156107f857600080fd5b85600a0160008673ffffffffffffffffffffffffffffffffffffffff1673ffffffffffffffffffffffffffffffffffffffff16815260200190815260200160002054831115151561084857600080fd5b85600b0160008673ffffffffffffffffffffffffffffffffffffffff1673ffffffffffffffffffffffffffffffffffffffff16815260200190815260200160002060008373ffffffffffffffffffffffffffffffffffffffff1673ffffffffffffffffffffffffffffffffffffffff1681526020019081526020016000205483111515156108d557600080fd5b61092086600a0160008773ffffffffffffffffffffffffffffffffffffffff1673ffffffffffffffffffffffffffffffffffffffff16815260200190815260200160002054846124f4565b86600a0160008773ffffffffffffffffffffffffffffffffffffffff1673ffffffffffffffffffffffffffffffffffffffff168152602001908152602001600020819055506109b086600a0160008673ffffffffffffffffffffffffffffffffffffffff1673ffffffffffffffffffffffffffffffffffffffff168152602001908152602001600020548461250d565b86600a0160008673ffffffffffffffffffffffffffffffffffffffff1673ffffffffffffffffffffffffffffffffffffffff16815260200190815260200160002081905550610a7d86600b0160008773ffffffffffffffffffffffffffffffffffffffff1673ffffffffffffffffffffffffffffffffffffffff16815260200190815260200160002060008473ffffffffffffffffffffffffffffffffffffffff1673ffffffffffffffffffffffffffffffffffffffff16815260200190815260200160002054846124f4565b86600b0160008773ffffffffffffffffffffffffffffffffffffffff1673ffffffffffffffffffffffffffffffffffffffff16815260200190815260200160002060008473ffffffffffffffffffffffffffffffffffffffff1673ffffffffffffffffffffffffffffffffffffffff168152602001908152602001600020819055506001905095945050505050565b60008160040160009054906101000a900473ffffffffffffffffffffffffffffffffffffffff168260040160009054906101000a900473ffffffffffffffffffffffffffffffffffffffff168173ffffffffffffffffffffffffffffffffffffffff163373ffffffffffffffffffffffffffffffffffffffff161480610bbd57508073ffffffffffffffffffffffffffffffffffffffff163373ffffffffffffffffffffffffffffffffffffffff16145b1515610c31576040517f08c379a00000000000000000000000000000000000000000000000000000000081526004018080602001828103825260168152602001807f53656e646572206e6f7420617574686f72697a65642e0000000000000000000081525060200191505060405180910390fd5b836002015492505050919050565b600081600701549050919050565b6000339050919050565b60008260040160009054906101000a900473ffffffffffffffffffffffffffffffffffffffff168360040160009054906101000a900473ffffffffffffffffffffffffffffffffffffffff168173ffffffffffffffffffffffffffffffffffffffff163373ffffffffffffffffffffffffffffffffffffffff161480610d0857508073ffffffffffffffffffffffffffffffffffffffff163373ffffffffffffffffffffffffffffffffffffffff16145b1515610d7c576040517f08c379a00000000000000000000000000000000000000000000000000000000081526004018080602001828103825260168152602001807f53656e646572206e6f7420617574686f72697a65642e0000000000000000000081525060200191505060405180910390fd5b838560020181905550505092915050565b6000806000808a60040160009054906101000a900473ffffffffffffffffffffffffffffffffffffffff168b60040160009054906101000a900473ffffffffffffffffffffffffffffffffffffffff168173ffffffffffffffffffffffffffffffffffffffff163373ffffffffffffffffffffffffffffffffffffffff161480610e4257508073ffffffffffffffffffffffffffffffffffffffff163373ffffffffffffffffffffffffffffffffffffffff16145b1515610eb6576040517f08c379a00000000000000000000000000000000000000000000000000000000081526004018080602001828103825260168152602001807f53656e646572206e6f7420617574686f72697a65642e0000000000000000000081525060200191505060405180910390fd5b7bffffffffffffffffffffffffffffffffffffffffffffffffffffffff8c6001900416945063ffffffff8516935064010000000085811515610ef457fe5b04945063ffffffff8516925064010000000085811515610f1057fe5b0494508c600201548710151515610f8f576040517f08c379a00000000000000000000000000000000000000000000000000000000081526004018080602001828103825260148152602001807f4e6f7420656e6f75676820736e656b2073656e7400000000000000000000000081525060200191505060405180910390fd5b8c60030160009054906101000a900473ffffffffffffffffffffffffffffffffffffffff1673ffffffffffffffffffffffffffffffffffffffff1660018d60405160200180807f19457468657265756d205369676e6564204d6573736167653a0a333200000000815250601c0182600019166000191681526020019150506040516020818303038152906040526040518082805190602001908083835b602083101515611051578051825260208201915060208101905060208303925061102c565b6001836020036101000a03801982511681845116808217855250505050505090500191505060405180910390208d8d8d604051600081526020016040526040518085600019166000191681526020018460ff1660ff1681526020018360001916600019168152602001826000191660001916815260200194505050505060206040516020810390808403906000865af11580156110f2573d6000803e3d6000fd5b5050506020604051035173ffffffffffffffffffffffffffffffffffffffff16141515611187576040517f08c379a00000000000000000000000000000000000000000000000000000000081526004018080602001828103825260158152602001807f4e6f7420617070726f766564206279206f776e6572000000000000000000000081525060200191505060405180910390fd5b8773ffffffffffffffffffffffffffffffffffffffff168573ffffffffffffffffffffffffffffffffffffffff1614151561122a576040517f08c379a00000000000000000000000000000000000000000000000000000000081526004018080602001828103825260118152602001807f4e6f7420417070726f766564205573657200000000000000000000000000000081525060200191505060405180910390fd5b8c60060160008973ffffffffffffffffffffffffffffffffffffffff1673ffffffffffffffffffffffffffffffffffffffff16815260200190815260200160002060009054906101000a900463ffffffff1663ffffffff168363ffffffff161415156112fe576040517f08c379a00000000000000000000000000000000000000000000000000000000081526004018080602001828103825260128152602001807f4e6f7420417070726f766564204e6f6e6365000000000000000000000000000081525060200191505060405180910390fd5b6113586113528e600a0160008b73ffffffffffffffffffffffffffffffffffffffff1673ffffffffffffffffffffffffffffffffffffffff168152602001908152602001600020548663ffffffff1661250d565b886124f4565b8d600a0160008a73ffffffffffffffffffffffffffffffffffffffff1673ffffffffffffffffffffffffffffffffffffffff1681526020019081526020016000208190555061140c8d600a0160008f60030160009054906101000a900473ffffffffffffffffffffffffffffffffffffffff1673ffffffffffffffffffffffffffffffffffffffff1673ffffffffffffffffffffffffffffffffffffffff168152602001908152602001600020548861250d565b8d600a0160008f60030160009054906101000a900473ffffffffffffffffffffffffffffffffffffffff1673ffffffffffffffffffffffffffffffffffffffff1673ffffffffffffffffffffffffffffffffffffffff1681526020019081526020016000208190555060018d60060160008a73ffffffffffffffffffffffffffffffffffffffff1673ffffffffffffffffffffffffffffffffffffffff16815260200190815260200160002060009054906101000a900463ffffffff16018d60060160008a73ffffffffffffffffffffffffffffffffffffffff1673ffffffffffffffffffffffffffffffffffffffff16815260200190815260200160002060006101000a81548163ffffffff021916908363ffffffff16021790555061153d8d600701548563ffffffff1661250d565b8d60070181905550600195505050505050979650505050505050565b60006115e384600b0160003373ffffffffffffffffffffffffffffffffffffffff1673ffffffffffffffffffffffffffffffffffffffff16815260200190815260200160002060008573ffffffffffffffffffffffffffffffffffffffff1673ffffffffffffffffffffffffffffffffffffffff168152602001908152602001600020548361250d565b84600b0160003373ffffffffffffffffffffffffffffffffffffffff1673ffffffffffffffffffffffffffffffffffffffff16815260200190815260200160002060008573ffffffffffffffffffffffffffffffffffffffff1673ffffffffffffffffffffffffffffffffffffffff16815260200190815260200160002081905550600190509392505050565b60008260040160009054906101000a900473ffffffffffffffffffffffffffffffffffffffff168360040160009054906101000a900473ffffffffffffffffffffffffffffffffffffffff168173ffffffffffffffffffffffffffffffffffffffff163373ffffffffffffffffffffffffffffffffffffffff16148061172157508073ffffffffffffffffffffffffffffffffffffffff163373ffffffffffffffffffffffffffffffffffffffff16145b1515611795576040517f08c379a00000000000000000000000000000000000000000000000000000000081526004018080602001828103825260168152602001807f53656e646572206e6f7420617574686f72697a65642e0000000000000000000081525060200191505060405180910390fd5b838560010181905550505092915050565b60008073ffffffffffffffffffffffffffffffffffffffff168473ffffffffffffffffffffffffffffffffffffffff16141515156117e357600080fd5b84600a0160008373ffffffffffffffffffffffffffffffffffffffff1673ffffffffffffffffffffffffffffffffffffffff16815260200190815260200160002054831115151561183357600080fd5b61187e85600a0160008473ffffffffffffffffffffffffffffffffffffffff1673ffffffffffffffffffffffffffffffffffffffff16815260200190815260200160002054846124f4565b85600a0160008473ffffffffffffffffffffffffffffffffffffffff1673ffffffffffffffffffffffffffffffffffffffff1681526020019081526020016000208190555061190e85600a0160008673ffffffffffffffffffffffffffffffffffffffff1673ffffffffffffffffffffffffffffffffffffffff168152602001908152602001600020548461250d565b85600a0160008673ffffffffffffffffffffffffffffffffffffffff1673ffffffffffffffffffffffffffffffffffffffff1681526020019081526020016000208190555060019050949350505050565b600082600a0160008373ffffffffffffffffffffffffffffffffffffffff1673ffffffffffffffffffffffffffffffffffffffff16815260200190815260200160002054905092915050565b60008060008060008b60040160009054906101000a900473ffffffffffffffffffffffffffffffffffffffff168c60040160009054906101000a900473ffffffffffffffffffffffffffffffffffffffff168173ffffffffffffffffffffffffffffffffffffffff163373ffffffffffffffffffffffffffffffffffffffff161480611a6257508073ffffffffffffffffffffffffffffffffffffffff163373ffffffffffffffffffffffffffffffffffffffff16145b1515611ad6576040517f08c379a00000000000000000000000000000000000000000000000000000000081526004018080602001828103825260168152602001807f53656e646572206e6f7420617574686f72697a65642e0000000000000000000081525060200191505060405180910390fd5b7bffffffffffffffffffffffffffffffffffffffffffffffffffffffff8d6001900416955063ffffffff8616945064010000000086811515611b1457fe5b04955063ffffffff8616935064010000000086811515611b3057fe5b0495508592508d600101548810151515611bb2576040517f08c379a00000000000000000000000000000000000000000000000000000000081526004018080602001828103825260138152602001807f4e6f7420656e6f75676820657468657265756d0000000000000000000000000081525060200191505060405180910390fd5b8d60030160009054906101000a900473ffffffffffffffffffffffffffffffffffffffff1673ffffffffffffffffffffffffffffffffffffffff1660018e60405160200180807f19457468657265756d205369676e6564204d6573736167653a0a333200000000815250601c0182600019166000191681526020019150506040516020818303038152906040526040518082805190602001908083835b602083101515611c745780518252602082019150602081019050602083039250611c4f565b6001836020036101000a03801982511681845116808217855250505050505090500191505060405180910390208e8e8e604051600081526020016040526040518085600019166000191681526020018460ff1660ff1681526020018360001916600019168152602001826000191660001916815260200194505050505060206040516020810390808403906000865af1158015611d15573d6000803e3d6000fd5b5050506020604051035173ffffffffffffffffffffffffffffffffffffffff16141515611daa576040517f08c379a00000000000000000000000000000000000000000000000000000000081526004018080602001828103825260158152602001807f4e6f7420617070726f766564206279206f776e6572000000000000000000000081525060200191505060405180910390fd5b8873ffffffffffffffffffffffffffffffffffffffff168373ffffffffffffffffffffffffffffffffffffffff16141515611e4d576040517f08c379a00000000000000000000000000000000000000000000000000000000081526004018080602001828103825260118152602001807f4e6f7420417070726f766564205573657200000000000000000000000000000081525060200191505060405180910390fd5b8d60060160008a73ffffffffffffffffffffffffffffffffffffffff1673ffffffffffffffffffffffffffffffffffffffff16815260200190815260200160002060009054906101000a900463ffffffff1663ffffffff168463ffffffff16141515611f21576040517f08c379a00000000000000000000000000000000000000000000000000000000081526004018080602001828103825260128152602001807f4e6f7420417070726f766564204e6f6e6365000000000000000000000000000081525060200191505060405180910390fd5b611f728e600a0160008b73ffffffffffffffffffffffffffffffffffffffff1673ffffffffffffffffffffffffffffffffffffffff168152602001908152602001600020548663ffffffff1661250d565b8e600a0160008b73ffffffffffffffffffffffffffffffffffffffff1673ffffffffffffffffffffffffffffffffffffffff1681526020019081526020016000208190555060018e60060160008b73ffffffffffffffffffffffffffffffffffffffff1673ffffffffffffffffffffffffffffffffffffffff16815260200190815260200160002060009054906101000a900463ffffffff16018e60060160008b73ffffffffffffffffffffffffffffffffffffffff1673ffffffffffffffffffffffffffffffffffffffff16815260200190815260200160002060006101000a81548163ffffffff021916908363ffffffff16021790555061207f8e600701548663ffffffff1661250d565b8e6007018190555060019650505050505050979650505050505050565b60008260060160008373ffffffffffffffffffffffffffffffffffffffff1673ffffffffffffffffffffffffffffffffffffffff16815260200190815260200160002060009054906101000a900463ffffffff16905092915050565b60008285600b0160008473ffffffffffffffffffffffffffffffffffffffff1673ffffffffffffffffffffffffffffffffffffffff16815260200190815260200160002060008673ffffffffffffffffffffffffffffffffffffffff1673ffffffffffffffffffffffffffffffffffffffff1681526020019081526020016000208190555060019050949350505050565b60008160040160009054906101000a900473ffffffffffffffffffffffffffffffffffffffff168260040160009054906101000a900473ffffffffffffffffffffffffffffffffffffffff168173ffffffffffffffffffffffffffffffffffffffff163373ffffffffffffffffffffffffffffffffffffffff16148061223a57508073ffffffffffffffffffffffffffffffffffffffff163373ffffffffffffffffffffffffffffffffffffffff16145b15156122ae576040517f08c379a00000000000000000000000000000000000000000000000000000000081526004018080602001828103825260168152602001807f53656e646572206e6f7420617574686f72697a65642e0000000000000000000081525060200191505060405180910390fd5b836001015492505050919050565b60008084600b0160003373ffffffffffffffffffffffffffffffffffffffff1673ffffffffffffffffffffffffffffffffffffffff16815260200190815260200160002060008573ffffffffffffffffffffffffffffffffffffffff1673ffffffffffffffffffffffffffffffffffffffff168152602001908152602001600020549050808311156123d157600085600b0160003373ffffffffffffffffffffffffffffffffffffffff1673ffffffffffffffffffffffffffffffffffffffff16815260200190815260200160002060008673ffffffffffffffffffffffffffffffffffffffff1673ffffffffffffffffffffffffffffffffffffffff1681526020019081526020016000208190555061245e565b6123db81846124f4565b85600b0160003373ffffffffffffffffffffffffffffffffffffffff1673ffffffffffffffffffffffffffffffffffffffff16815260200190815260200160002060008673ffffffffffffffffffffffffffffffffffffffff1673ffffffffffffffffffffffffffffffffffffffff168152602001908152602001600020819055505b60019150509392505050565b600083600b0160008473ffffffffffffffffffffffffffffffffffffffff1673ffffffffffffffffffffffffffffffffffffffff16815260200190815260200160002060008373ffffffffffffffffffffffffffffffffffffffff1673ffffffffffffffffffffffffffffffffffffffff1681526020019081526020016000205490509392505050565b600082821115151561250257fe5b818303905092915050565b600080828401905083811015151561252157fe5b80915050929150505600a165627a7a723058202e693b77ed9fcbabdaab6f23fdc6026bfbf4bf9eaa518355dd849f0938776f200029",
  "source": "pragma solidity ^0.4.10;\n\nimport \"../contracts/LibInterface.sol\";\nimport \"../contracts/lib/SafeMath.sol\";\n\nlibrary SnekCoin0_0_1 {\n  using SafeMath for uint;\n\n  modifier onlyBy(address account1, address account2) {\n    require(\n      msg.sender == account1 || msg.sender == account2 ,\n      \"Sender not authorized.\"\n    );\n    _;\n  }\n\n  function getSender(LibInterface.S storage s)\n  public view returns(address){\n    return msg.sender;\n  }\n\n  function changeMiningPrice(LibInterface.S storage s, uint256 amount)\n  public onlyBy(s.root, s.root) returns(bool){\n      s.weiPriceToMine = amount;\n  }\n  function changeMiningSnekPrice(LibInterface.S storage s, uint256 amount)\n  public onlyBy(s.root, s.root) returns(bool){\n    s.snekPriceToMine = amount;\n  }\n\n  function getMiningPrice(LibInterface.S storage s)\n  public view onlyBy(s.root, s.root) returns(uint256){\n    return s.weiPriceToMine;\n  }\n  function getMiningSnekPrice(LibInterface.S storage s)\n  public view onlyBy(s.root, s.root) returns(uint256){\n    return s.snekPriceToMine;\n  }\n\n  function mine(LibInterface.S storage s, bytes32 signedMessage, uint8 sigV, bytes32 sigR, bytes32 sigS, address sender, uint256 value)\n  public onlyBy(s.root, s.root) returns(bool) {\n    // Data is 3 uints packed into bytes32 as hex: 1337beef + pubkey + allowance nonce + amount.\n    // pubkey = 20 bytes, nonce = 4 bytes, amount = 4 bytes.\n    // Total size = 224 bits = 160 + 32 + 32 bits = 28 bytes = 40hex pubkey, 8 hex nonce, 8 hex amount = (40*8*8)*4 hex chars\n    // Bytes32 also convenient for sha3/keccak256 to work across web3 + solidity.\n    uint256 rawData = uint256(signedMessage) & (2**224-1);\n    uint32 amount = uint32(rawData & (2**32-1));\n    rawData = rawData / (2**32);\n    uint32 nonce = uint32(rawData & (2**32-1));\n    rawData = rawData / (2**32);\n    address user = address(rawData);\n    require(value >= s.weiPriceToMine, \"Not enough ethereum\");\n    require(ecrecover(keccak256(abi.encodePacked(\"\\x19Ethereum Signed Message:\\n32\", signedMessage)), sigV, sigR, sigS) == s.owner, \"Not approved by owner\");\n    require(user == sender, \"Not Approved User\");\n    require(nonce == s.allowanceNonces[sender] , \"Not Approved Nonce\");\n    s.balances[sender] = SafeMath.add(s.balances[sender], amount);\n    s.allowanceNonces[sender] = s.allowanceNonces[sender] + 1;\n    s.totalSupp = SafeMath.add(s.totalSupp, amount);\n    return true;\n  }\n  function mineWithSnek(LibInterface.S storage s, bytes32 signedMessage, uint8 sigV, bytes32 sigR, bytes32 sigS, address sender, uint256 payAmount)\n  public onlyBy(s.root, s.root) returns(bool){\n    uint256 rawData = uint256(signedMessage) & (2**224-1);\n    uint32 amount = uint32(rawData & (2**32-1));\n    rawData = rawData / (2**32);\n    uint32 nonce = uint32(rawData & (2**32-1));\n    rawData = rawData / (2**32);\n    //address user = address(rawData);\n    require(payAmount >= s.snekPriceToMine, \"Not enough snek sent\");\n    //require(amount - payAmount >= s.balances[sender], \"Not enough snek in wallet\");\n    require(ecrecover(keccak256(abi.encodePacked(\"\\x19Ethereum Signed Message:\\n32\", signedMessage)), sigV, sigR, sigS) == s.owner, \"Not approved by owner\");\n    require(address(rawData) == sender, \"Not Approved User\");\n    require(nonce == s.allowanceNonces[sender] , \"Not Approved Nonce\");\n    s.balances[sender] = SafeMath.sub(SafeMath.add(s.balances[sender], amount), payAmount);\n    s.balances[s.owner] = SafeMath.add(s.balances[s.owner], payAmount);\n    s.allowanceNonces[sender] = s.allowanceNonces[sender] + 1;\n    s.totalSupp = SafeMath.add(s.totalSupp, amount);\n    return true;\n  }\n  function getUserNonce(LibInterface.S storage s, address who)\n  public view returns(uint32) {\n    return s.allowanceNonces[who];\n  }\n  // *************************************************************************\n  // ****************************** BEGIN ERC20 ******************************\n  // *************************************************************************\n  // totalSupply - Get the total token supply\n  // balanceOf - Get the token balance of an address\n  // transfer - Send tokens to another address\n  // approve - Give another address permission to spend a certain allowance of tokens\n  // allowance - Check the allowance that one address has for another\n  // transferFrom - Spend the allowance that one address has for another */\n\n  function totalSupply(LibInterface.S storage s) public view returns(uint256) {\n    return s.totalSupp;\n  }\n\n  function balanceOf(LibInterface.S storage s, address _owner)\n  public view returns(uint256) {\n    return s.balances[_owner];\n  }\n\n  function allowance(LibInterface.S storage s, address _owner, address _spender)\n  public view returns(uint256) {\n    return s.allowed[_owner][_spender];\n  }\n\n  function transfer(LibInterface.S storage s, address _to, uint256 _value, address sender)\n  public returns(bool) {\n    // Address(0) is 0x0. It is the burn address for ETH.\n    // When used in the tx.to field, will cause the tx to create a new contract\n    require(_to != address(0));\n    require(_value <= s.balances[sender]);\n    s.balances[sender] = SafeMath.sub(s.balances[sender], _value);\n    s.balances[_to] = SafeMath.add(s.balances[_to], _value);\n    //emit Transfer(msg.sender, _to, _value);\n    return true;\n  }\n\n  function transferFrom(LibInterface.S storage s, address _from, address _to, uint256 _value, address sender)\n  public returns(bool) {\n    require(_to != address(0));\n    require(_value <= s.balances[_from]);\n    require(_value <= s.allowed[_from][sender]);\n    s.balances[_from] = SafeMath.sub(s.balances[_from], _value);\n    s.balances[_to] = SafeMath.add(s.balances[_to], _value);\n    s.allowed[_from][sender] = SafeMath.sub(s.allowed[_from][sender], _value);\n    //emit LibInterface.Transfer(_from, _to, _value);\n    return true;\n  }\n\n  // Approve allows a token holder to allocate some coins to an address without\n  // specifying the amount. This has a few usecases, but the main reason this\n  // is done is for contract-to-contract interoperability. Since contracts\n  // cannot listen for events so they will never be notified when they receive\n  // tokens.\n  //\n  // If a user wants to send RewardCoin tokens to another contract, the user\n  // should first approve the transfer to the contract's address. The user\n  // can then call a function in the contract(e.g. buyWithRewardCoin) that will\n  // will then call transferFrom.\n  function approve(LibInterface.S storage s, address _spender, uint256 _value, address sender)\n  public returns(bool) {\n    s.allowed[sender][_spender] = _value;\n    //emit Approval(msg.sender, _spender, _value);\n    return true;\n  }\n\n\n  // Allows incremental changes to allowed[]\n  function increaseApproval(LibInterface.S storage s, address _spender, uint _addedValue)\n  public returns(bool) {\n    s.allowed[msg.sender][_spender] = SafeMath.add(s.allowed[msg.sender][_spender], _addedValue);\n    //emit Approval(msg.sender, _spender, s.allowed[msg.sender][_spender]);\n    return true;\n  }\n\n  function decreaseApproval(LibInterface.S storage s, address _spender, uint _subtractedValue)\n  public returns(bool) {\n    uint oldValue = s.allowed[msg.sender][_spender];\n    if (_subtractedValue > oldValue) {\n      s.allowed[msg.sender][_spender] = 0;\n    } else {\n      s.allowed[msg.sender][_spender] = SafeMath.sub(oldValue, _subtractedValue);\n    }\n    //emit Approval(msg.sender, _spender, s.allowed[msg.sender][_spender]);\n    return true;\n  }\n  // *************************************************************************\n  // ****************************** END ERC20 ******************************\n  // *************************************************************************\n}\n",
  "sourcePath": "/Users/clay/projects/snekCoin/contracts/SnekCoin0_0_1.sol",
  "compiler": {
    "name": "solc",
    "version": "0.4.24+commit.e67f0147.Emscripten.clang"
  },
  "schemaVersion": "2.0.1",
  "updatedAt": "2018-12-18T06:23:04.037Z"
}