{
  "contractName": "SnekCoin0_0_1",
  "abi": [
    {
      "constant": true,
      "inputs": [
        {
          "name": "s",
          "type": "LibInterface.S storage"
        }
      ],
      "name": "getSender",
      "outputs": [
        {
          "name": "",
          "type": "address"
        }
      ],
      "payable": false,
      "stateMutability": "view",
      "type": "function"
    },
    {
      "constant": false,
      "inputs": [
        {
          "name": "s",
          "type": "LibInterface.S storage"
        },
        {
          "name": "who",
          "type": "address"
        },
        {
          "name": "amount",
          "type": "uint256"
        }
      ],
      "name": "approveMine",
      "outputs": [
        {
          "name": "",
          "type": "bool"
        }
      ],
      "payable": false,
      "stateMutability": "nonpayable",
      "type": "function"
    },
    {
      "constant": true,
      "inputs": [
        {
          "name": "s",
          "type": "LibInterface.S storage"
        },
        {
          "name": "who",
          "type": "address"
        }
      ],
      "name": "isMineApproved",
      "outputs": [
        {
          "name": "",
          "type": "uint256"
        }
      ],
      "payable": false,
      "stateMutability": "view",
      "type": "function"
    },
    {
      "constant": false,
      "inputs": [
        {
          "name": "s",
          "type": "LibInterface.S storage"
        },
        {
          "name": "amount",
          "type": "uint256"
        }
      ],
      "name": "changeMiningPrice",
      "outputs": [
        {
          "name": "",
          "type": "bool"
        }
      ],
      "payable": false,
      "stateMutability": "nonpayable",
      "type": "function"
    },
    {
      "constant": false,
      "inputs": [
        {
          "name": "s",
          "type": "LibInterface.S storage"
        },
        {
          "name": "amount",
          "type": "uint256"
        }
      ],
      "name": "changeMiningSnekPrice",
      "outputs": [
        {
          "name": "",
          "type": "bool"
        }
      ],
      "payable": false,
      "stateMutability": "nonpayable",
      "type": "function"
    },
    {
      "constant": true,
      "inputs": [
        {
          "name": "s",
          "type": "LibInterface.S storage"
        }
      ],
      "name": "getMiningPrice",
      "outputs": [
        {
          "name": "",
          "type": "uint256"
        }
      ],
      "payable": false,
      "stateMutability": "view",
      "type": "function"
    },
    {
      "constant": true,
      "inputs": [
        {
          "name": "s",
          "type": "LibInterface.S storage"
        }
      ],
      "name": "getMiningSnekPrice",
      "outputs": [
        {
          "name": "",
          "type": "uint256"
        }
      ],
      "payable": false,
      "stateMutability": "view",
      "type": "function"
    },
    {
      "constant": false,
      "inputs": [
        {
          "name": "s",
          "type": "LibInterface.S storage"
        },
        {
          "name": "signedMessage",
          "type": "bytes32"
        },
        {
          "name": "sigV",
          "type": "uint8"
        },
        {
          "name": "sigR",
          "type": "bytes32"
        },
        {
          "name": "sigS",
          "type": "bytes32"
        },
        {
          "name": "sender",
          "type": "address"
        },
        {
          "name": "value",
          "type": "uint256"
        }
      ],
      "name": "mine",
      "outputs": [
        {
          "name": "",
          "type": "bool"
        }
      ],
      "payable": false,
      "stateMutability": "nonpayable",
      "type": "function"
    },
    {
      "constant": false,
      "inputs": [
        {
          "name": "s",
          "type": "LibInterface.S storage"
        },
        {
          "name": "amount",
          "type": "uint256"
        },
        {
          "name": "sender",
          "type": "address"
        },
        {
          "name": "payAmount",
          "type": "uint256"
        }
      ],
      "name": "mineWithSnek",
      "outputs": [
        {
          "name": "",
          "type": "bool"
        }
      ],
      "payable": false,
      "stateMutability": "nonpayable",
      "type": "function"
    },
    {
      "constant": false,
      "inputs": [
        {
          "name": "s",
          "type": "LibInterface.S storage"
        },
        {
          "name": "who",
          "type": "address"
        }
      ],
      "name": "getUserNonce",
      "outputs": [
        {
          "name": "",
          "type": "uint32"
        }
      ],
      "payable": false,
      "stateMutability": "nonpayable",
      "type": "function"
    },
    {
      "constant": true,
      "inputs": [
        {
          "name": "s",
          "type": "LibInterface.S storage"
        }
      ],
      "name": "totalSupply",
      "outputs": [
        {
          "name": "",
          "type": "uint256"
        }
      ],
      "payable": false,
      "stateMutability": "view",
      "type": "function"
    },
    {
      "constant": true,
      "inputs": [
        {
          "name": "s",
          "type": "LibInterface.S storage"
        },
        {
          "name": "_owner",
          "type": "address"
        }
      ],
      "name": "balanceOf",
      "outputs": [
        {
          "name": "",
          "type": "uint256"
        }
      ],
      "payable": false,
      "stateMutability": "view",
      "type": "function"
    },
    {
      "constant": true,
      "inputs": [
        {
          "name": "s",
          "type": "LibInterface.S storage"
        },
        {
          "name": "_owner",
          "type": "address"
        },
        {
          "name": "_spender",
          "type": "address"
        }
      ],
      "name": "allowance",
      "outputs": [
        {
          "name": "",
          "type": "uint256"
        }
      ],
      "payable": false,
      "stateMutability": "view",
      "type": "function"
    },
    {
      "constant": false,
      "inputs": [
        {
          "name": "s",
          "type": "LibInterface.S storage"
        },
        {
          "name": "_to",
          "type": "address"
        },
        {
          "name": "_value",
          "type": "uint256"
        },
        {
          "name": "sender",
          "type": "address"
        }
      ],
      "name": "transfer",
      "outputs": [
        {
          "name": "",
          "type": "bool"
        }
      ],
      "payable": false,
      "stateMutability": "nonpayable",
      "type": "function"
    },
    {
      "constant": false,
      "inputs": [
        {
          "name": "s",
          "type": "LibInterface.S storage"
        },
        {
          "name": "_from",
          "type": "address"
        },
        {
          "name": "_to",
          "type": "address"
        },
        {
          "name": "_value",
          "type": "uint256"
        },
        {
          "name": "sender",
          "type": "address"
        }
      ],
      "name": "transferFrom",
      "outputs": [
        {
          "name": "",
          "type": "bool"
        }
      ],
      "payable": false,
      "stateMutability": "nonpayable",
      "type": "function"
    },
    {
      "constant": false,
      "inputs": [
        {
          "name": "s",
          "type": "LibInterface.S storage"
        },
        {
          "name": "_spender",
          "type": "address"
        },
        {
          "name": "_value",
          "type": "uint256"
        },
        {
          "name": "sender",
          "type": "address"
        }
      ],
      "name": "approve",
      "outputs": [
        {
          "name": "",
          "type": "bool"
        }
      ],
      "payable": false,
      "stateMutability": "nonpayable",
      "type": "function"
    },
    {
      "constant": false,
      "inputs": [
        {
          "name": "s",
          "type": "LibInterface.S storage"
        },
        {
          "name": "_spender",
          "type": "address"
        },
        {
          "name": "_addedValue",
          "type": "uint256"
        }
      ],
      "name": "increaseApproval",
      "outputs": [
        {
          "name": "",
          "type": "bool"
        }
      ],
      "payable": false,
      "stateMutability": "nonpayable",
      "type": "function"
    },
    {
      "constant": false,
      "inputs": [
        {
          "name": "s",
          "type": "LibInterface.S storage"
        },
        {
          "name": "_spender",
          "type": "address"
        },
        {
          "name": "_subtractedValue",
          "type": "uint256"
        }
      ],
      "name": "decreaseApproval",
      "outputs": [
        {
          "name": "",
          "type": "bool"
        }
      ],
      "payable": false,
      "stateMutability": "nonpayable",
      "type": "function"
    }
  ],
  "bytecode": "0x6123cf610030600b82828239805160001a6073146000811461002057610022565bfe5b5030600052607381538281f3007300000000000000000000000000000000000000003014608060405260043610610113576000357c0100000000000000000000000000000000000000000000000000000000900463ffffffff1680632dab5487146101185780633053fdec146101875780636a9e0e2814610236578063726eecb11461026a578063873b63f31461029e5780639a5a1f41146102fe578063ab62d8511461034d578063b61db2fe146103bc578063c138734814610435578063c266bd3a14610484578063c3fc280b14610513578063d4445d0114610567578063e0e660ef1461060d578063e77176e81461067a578063ed1d493f14610709578063ed324a2d1461073d578063f11d2c04146107ac578063fae7b71d14610820575b600080fd5b81801561012457600080fd5b5061016d60048036038101908080359060200190929190803573ffffffffffffffffffffffffffffffffffffffff16906020019092919080359060200190929190505050610874565b604051808215151515815260200191505060405180910390f35b81801561019357600080fd5b5061021c60048036038101908080359060200190929190803573ffffffffffffffffffffffffffffffffffffffff169060200190929190803573ffffffffffffffffffffffffffffffffffffffff16906020019092919080359060200190929190803573ffffffffffffffffffffffffffffffffffffffff1690602001909291905050506109ec565b604051808215151515815260200191505060405180910390f35b61025460048036038101908080359060200190929190505050610d3d565b6040518082815260200191505060405180910390f35b61028860048036038101908080359060200190929190505050610e70565b6040518082815260200191505060405180910390f35b6102bc60048036038101908080359060200190929190505050610e7e565b604051808273ffffffffffffffffffffffffffffffffffffffff1673ffffffffffffffffffffffffffffffffffffffff16815260200191505060405180910390f35b81801561030a57600080fd5b506103336004803603810190808035906020019092919080359060200190929190505050610e88565b604051808215151515815260200191505060405180910390f35b81801561035957600080fd5b506103a260048036038101908080359060200190929190803573ffffffffffffffffffffffffffffffffffffffff16906020019092919080359060200190929190505050610fbe565b604051808215151515815260200191505060405180910390f35b8180156103c857600080fd5b5061041b6004803603810190808035906020019092919080359060200190929190803573ffffffffffffffffffffffffffffffffffffffff169060200190929190803590602001909291905050506110d5565b604051808215151515815260200191505060405180910390f35b81801561044157600080fd5b5061046a600480360381019080803590602001909291908035906020019092919050505061160f565b604051808215151515815260200191505060405180910390f35b81801561049057600080fd5b506104f960048036038101908080359060200190929190803573ffffffffffffffffffffffffffffffffffffffff16906020019092919080359060200190929190803573ffffffffffffffffffffffffffffffffffffffff169060200190929190505050611745565b604051808215151515815260200191505060405180910390f35b61055160048036038101908080359060200190929190803573ffffffffffffffffffffffffffffffffffffffff1690602001909291905050506118fe565b6040518082815260200191505060405180910390f35b81801561057357600080fd5b506105f3600480360381019080803590602001909291908035600019169060200190929190803560ff16906020019092919080356000191690602001909291908035600019169060200190929190803573ffffffffffffffffffffffffffffffffffffffff1690602001909291908035906020019092919050505061194a565b604051808215151515815260200191505060405180910390f35b81801561061957600080fd5b5061065860048036038101908080359060200190929190803573ffffffffffffffffffffffffffffffffffffffff169060200190929190505050611da3565b604051808263ffffffff1663ffffffff16815260200191505060405180910390f35b81801561068657600080fd5b506106ef60048036038101908080359060200190929190803573ffffffffffffffffffffffffffffffffffffffff16906020019092919080359060200190929190803573ffffffffffffffffffffffffffffffffffffffff169060200190929190505050611dff565b604051808215151515815260200191505060405180910390f35b61072760048036038101908080359060200190929190505050611e90565b6040518082815260200191505060405180910390f35b81801561074957600080fd5b5061079260048036038101908080359060200190929190803573ffffffffffffffffffffffffffffffffffffffff16906020019092919080359060200190929190505050611fc3565b604051808215151515815260200191505060405180910390f35b61080a60048036038101908080359060200190929190803573ffffffffffffffffffffffffffffffffffffffff169060200190929190803573ffffffffffffffffffffffffffffffffffffffff169060200190929190505050612171565b6040518082815260200191505060405180910390f35b61085e60048036038101908080359060200190929190803573ffffffffffffffffffffffffffffffffffffffff1690602001909291905050506121fb565b6040518082815260200191505060405180910390f35b60008360040160009054906101000a900473ffffffffffffffffffffffffffffffffffffffff168460040160009054906101000a900473ffffffffffffffffffffffffffffffffffffffff168173ffffffffffffffffffffffffffffffffffffffff163373ffffffffffffffffffffffffffffffffffffffff16148061092557508073ffffffffffffffffffffffffffffffffffffffff163373ffffffffffffffffffffffffffffffffffffffff16145b1515610999576040517f08c379a00000000000000000000000000000000000000000000000000000000081526004018080602001828103825260168152602001807f53656e646572206e6f7420617574686f72697a65642e0000000000000000000081525060200191505060405180910390fd5b838660060160008773ffffffffffffffffffffffffffffffffffffffff1673ffffffffffffffffffffffffffffffffffffffff168152602001908152602001600020819055506001925050509392505050565b60008073ffffffffffffffffffffffffffffffffffffffff168473ffffffffffffffffffffffffffffffffffffffff1614151515610a2957600080fd5b85600a0160008673ffffffffffffffffffffffffffffffffffffffff1673ffffffffffffffffffffffffffffffffffffffff168152602001908152602001600020548311151515610a7957600080fd5b85600b0160008673ffffffffffffffffffffffffffffffffffffffff1673ffffffffffffffffffffffffffffffffffffffff16815260200190815260200160002060008373ffffffffffffffffffffffffffffffffffffffff1673ffffffffffffffffffffffffffffffffffffffff168152602001908152602001600020548311151515610b0657600080fd5b610b5186600a0160008773ffffffffffffffffffffffffffffffffffffffff1673ffffffffffffffffffffffffffffffffffffffff168152602001908152602001600020548461236c565b86600a0160008773ffffffffffffffffffffffffffffffffffffffff1673ffffffffffffffffffffffffffffffffffffffff16815260200190815260200160002081905550610be186600a0160008673ffffffffffffffffffffffffffffffffffffffff1673ffffffffffffffffffffffffffffffffffffffff1681526020019081526020016000205484612385565b86600a0160008673ffffffffffffffffffffffffffffffffffffffff1673ffffffffffffffffffffffffffffffffffffffff16815260200190815260200160002081905550610cae86600b0160008773ffffffffffffffffffffffffffffffffffffffff1673ffffffffffffffffffffffffffffffffffffffff16815260200190815260200160002060008473ffffffffffffffffffffffffffffffffffffffff1673ffffffffffffffffffffffffffffffffffffffff168152602001908152602001600020548461236c565b86600b0160008773ffffffffffffffffffffffffffffffffffffffff1673ffffffffffffffffffffffffffffffffffffffff16815260200190815260200160002060008473ffffffffffffffffffffffffffffffffffffffff1673ffffffffffffffffffffffffffffffffffffffff168152602001908152602001600020819055506001905095945050505050565b60008160040160009054906101000a900473ffffffffffffffffffffffffffffffffffffffff168260040160009054906101000a900473ffffffffffffffffffffffffffffffffffffffff168173ffffffffffffffffffffffffffffffffffffffff163373ffffffffffffffffffffffffffffffffffffffff161480610dee57508073ffffffffffffffffffffffffffffffffffffffff163373ffffffffffffffffffffffffffffffffffffffff16145b1515610e62576040517f08c379a00000000000000000000000000000000000000000000000000000000081526004018080602001828103825260168152602001807f53656e646572206e6f7420617574686f72697a65642e0000000000000000000081525060200191505060405180910390fd5b836002015492505050919050565b600081600701549050919050565b6000339050919050565b60008260040160009054906101000a900473ffffffffffffffffffffffffffffffffffffffff168360040160009054906101000a900473ffffffffffffffffffffffffffffffffffffffff168173ffffffffffffffffffffffffffffffffffffffff163373ffffffffffffffffffffffffffffffffffffffff161480610f3957508073ffffffffffffffffffffffffffffffffffffffff163373ffffffffffffffffffffffffffffffffffffffff16145b1515610fad576040517f08c379a00000000000000000000000000000000000000000000000000000000081526004018080602001828103825260168152602001807f53656e646572206e6f7420617574686f72697a65642e0000000000000000000081525060200191505060405180910390fd5b838560020181905550505092915050565b600061104884600b0160003373ffffffffffffffffffffffffffffffffffffffff1673ffffffffffffffffffffffffffffffffffffffff16815260200190815260200160002060008573ffffffffffffffffffffffffffffffffffffffff1673ffffffffffffffffffffffffffffffffffffffff1681526020019081526020016000205483612385565b84600b0160003373ffffffffffffffffffffffffffffffffffffffff1673ffffffffffffffffffffffffffffffffffffffff16815260200190815260200160002060008573ffffffffffffffffffffffffffffffffffffffff1673ffffffffffffffffffffffffffffffffffffffff16815260200190815260200160002081905550600190509392505050565b60008460040160009054906101000a900473ffffffffffffffffffffffffffffffffffffffff168560040160009054906101000a900473ffffffffffffffffffffffffffffffffffffffff168173ffffffffffffffffffffffffffffffffffffffff163373ffffffffffffffffffffffffffffffffffffffff16148061118657508073ffffffffffffffffffffffffffffffffffffffff163373ffffffffffffffffffffffffffffffffffffffff16145b15156111fa576040517f08c379a00000000000000000000000000000000000000000000000000000000081526004018080602001828103825260168152602001807f53656e646572206e6f7420617574686f72697a65642e0000000000000000000081525060200191505060405180910390fd5b86600201548410151515611276576040517f08c379a000000000000000000000000000000000000000000000000000000000815260040180806020018281038252600f8152602001807f4e6f7420656e6f75676820736e656b000000000000000000000000000000000081525060200191505060405180910390fd5b858760060160008773ffffffffffffffffffffffffffffffffffffffff1673ffffffffffffffffffffffffffffffffffffffff168152602001908152602001600020541015151561132f576040517f08c379a000000000000000000000000000000000000000000000000000000000815260040180806020018281038252600c8152602001807f4e6f7420617070726f766564000000000000000000000000000000000000000081525060200191505060405180910390fd5b86600a0160008673ffffffffffffffffffffffffffffffffffffffff1673ffffffffffffffffffffffffffffffffffffffff16815260200190815260200160002054848703101515156113ea576040517f08c379a00000000000000000000000000000000000000000000000000000000081526004018080602001828103825260198152602001807f4e6f7420656e6f75676820736e656b20696e2077616c6c65740000000000000081525060200191505060405180910390fd5b61143e61143888600a0160008873ffffffffffffffffffffffffffffffffffffffff1673ffffffffffffffffffffffffffffffffffffffff1681526020019081526020016000205488612385565b8561236c565b87600a0160008773ffffffffffffffffffffffffffffffffffffffff1673ffffffffffffffffffffffffffffffffffffffff168152602001908152602001600020819055506114f287600a0160008960030160009054906101000a900473ffffffffffffffffffffffffffffffffffffffff1673ffffffffffffffffffffffffffffffffffffffff1673ffffffffffffffffffffffffffffffffffffffff1681526020019081526020016000205485612385565b87600a0160008960030160009054906101000a900473ffffffffffffffffffffffffffffffffffffffff1673ffffffffffffffffffffffffffffffffffffffff1673ffffffffffffffffffffffffffffffffffffffff168152602001908152602001600020819055506115a68760060160008773ffffffffffffffffffffffffffffffffffffffff1673ffffffffffffffffffffffffffffffffffffffff168152602001908152602001600020548761236c565b8760060160008773ffffffffffffffffffffffffffffffffffffffff1673ffffffffffffffffffffffffffffffffffffffff168152602001908152602001600020819055506115f9876007015487612385565b8760070181905550600192505050949350505050565b60008260040160009054906101000a900473ffffffffffffffffffffffffffffffffffffffff168360040160009054906101000a900473ffffffffffffffffffffffffffffffffffffffff168173ffffffffffffffffffffffffffffffffffffffff163373ffffffffffffffffffffffffffffffffffffffff1614806116c057508073ffffffffffffffffffffffffffffffffffffffff163373ffffffffffffffffffffffffffffffffffffffff16145b1515611734576040517f08c379a00000000000000000000000000000000000000000000000000000000081526004018080602001828103825260168152602001807f53656e646572206e6f7420617574686f72697a65642e0000000000000000000081525060200191505060405180910390fd5b838560010181905550505092915050565b60008073ffffffffffffffffffffffffffffffffffffffff168473ffffffffffffffffffffffffffffffffffffffff161415151561178257600080fd5b84600a0160008373ffffffffffffffffffffffffffffffffffffffff1673ffffffffffffffffffffffffffffffffffffffff1681526020019081526020016000205483111515156117d257600080fd5b61181d85600a0160008473ffffffffffffffffffffffffffffffffffffffff1673ffffffffffffffffffffffffffffffffffffffff168152602001908152602001600020548461236c565b85600a0160008473ffffffffffffffffffffffffffffffffffffffff1673ffffffffffffffffffffffffffffffffffffffff168152602001908152602001600020819055506118ad85600a0160008673ffffffffffffffffffffffffffffffffffffffff1673ffffffffffffffffffffffffffffffffffffffff1681526020019081526020016000205484612385565b85600a0160008673ffffffffffffffffffffffffffffffffffffffff1673ffffffffffffffffffffffffffffffffffffffff1681526020019081526020016000208190555060019050949350505050565b600082600a0160008373ffffffffffffffffffffffffffffffffffffffff1673ffffffffffffffffffffffffffffffffffffffff16815260200190815260200160002054905092915050565b60008060008960040160009054906101000a900473ffffffffffffffffffffffffffffffffffffffff168a60040160009054906101000a900473ffffffffffffffffffffffffffffffffffffffff168173ffffffffffffffffffffffffffffffffffffffff163373ffffffffffffffffffffffffffffffffffffffff1614806119fe57508073ffffffffffffffffffffffffffffffffffffffff163373ffffffffffffffffffffffffffffffffffffffff16145b1515611a72576040517f08c379a00000000000000000000000000000000000000000000000000000000081526004018080602001828103825260168152602001807f53656e646572206e6f7420617574686f72697a65642e0000000000000000000081525060200191505060405180910390fd5b6401000000008b6001900467ffffffffffffffff16811515611a9057fe5b04935063ffffffff8b600190041692508b600101548610151515611b1c576040517f08c379a00000000000000000000000000000000000000000000000000000000081526004018080602001828103825260138152602001807f4e6f7420656e6f75676820657468657265756d0000000000000000000000000081525060200191505060405180910390fd5b8b600c0160008873ffffffffffffffffffffffffffffffffffffffff1673ffffffffffffffffffffffffffffffffffffffff16815260200190815260200160002060009054906101000a900463ffffffff1663ffffffff168463ffffffff16141515611bf0576040517f08c379a000000000000000000000000000000000000000000000000000000000815260040180806020018281038252600c8152602001807f4e6f7420617070726f766564000000000000000000000000000000000000000081525060200191505060405180910390fd5b8b60030160009054906101000a900473ffffffffffffffffffffffffffffffffffffffff1673ffffffffffffffffffffffffffffffffffffffff1660018c60405180807f19457468657265756d205369676e6564204d6573736167653a0a333200000000815250601c01826000191660001916815260200191505060405180910390208c8c8c604051600081526020016040526040518085600019166000191681526020018460ff1660ff1681526020018360001916600019168152602001826000191660001916815260200194505050505060206040516020810390808403906000865af1158015611ce7573d6000803e3d6000fd5b5050506020604051035173ffffffffffffffffffffffffffffffffffffffff16141515611d1357600080fd5b600a8c600c0160008973ffffffffffffffffffffffffffffffffffffffff1673ffffffffffffffffffffffffffffffffffffffff16815260200190815260200160002060006101000a81548163ffffffff021916908363ffffffff160217905550611d888c600701548463ffffffff16612385565b8c600701819055506001945050505050979650505050505050565b600082600c0160008373ffffffffffffffffffffffffffffffffffffffff1673ffffffffffffffffffffffffffffffffffffffff16815260200190815260200160002060009054906101000a900463ffffffff16905092915050565b60008285600b0160008473ffffffffffffffffffffffffffffffffffffffff1673ffffffffffffffffffffffffffffffffffffffff16815260200190815260200160002060008673ffffffffffffffffffffffffffffffffffffffff1673ffffffffffffffffffffffffffffffffffffffff1681526020019081526020016000208190555060019050949350505050565b60008160040160009054906101000a900473ffffffffffffffffffffffffffffffffffffffff168260040160009054906101000a900473ffffffffffffffffffffffffffffffffffffffff168173ffffffffffffffffffffffffffffffffffffffff163373ffffffffffffffffffffffffffffffffffffffff161480611f4157508073ffffffffffffffffffffffffffffffffffffffff163373ffffffffffffffffffffffffffffffffffffffff16145b1515611fb5576040517f08c379a00000000000000000000000000000000000000000000000000000000081526004018080602001828103825260168152602001807f53656e646572206e6f7420617574686f72697a65642e0000000000000000000081525060200191505060405180910390fd5b836001015492505050919050565b60008084600b0160003373ffffffffffffffffffffffffffffffffffffffff1673ffffffffffffffffffffffffffffffffffffffff16815260200190815260200160002060008573ffffffffffffffffffffffffffffffffffffffff1673ffffffffffffffffffffffffffffffffffffffff168152602001908152602001600020549050808311156120d857600085600b0160003373ffffffffffffffffffffffffffffffffffffffff1673ffffffffffffffffffffffffffffffffffffffff16815260200190815260200160002060008673ffffffffffffffffffffffffffffffffffffffff1673ffffffffffffffffffffffffffffffffffffffff16815260200190815260200160002081905550612165565b6120e2818461236c565b85600b0160003373ffffffffffffffffffffffffffffffffffffffff1673ffffffffffffffffffffffffffffffffffffffff16815260200190815260200160002060008673ffffffffffffffffffffffffffffffffffffffff1673ffffffffffffffffffffffffffffffffffffffff168152602001908152602001600020819055505b60019150509392505050565b600083600b0160008473ffffffffffffffffffffffffffffffffffffffff1673ffffffffffffffffffffffffffffffffffffffff16815260200190815260200160002060008373ffffffffffffffffffffffffffffffffffffffff1673ffffffffffffffffffffffffffffffffffffffff1681526020019081526020016000205490509392505050565b60008260040160009054906101000a900473ffffffffffffffffffffffffffffffffffffffff168360040160009054906101000a900473ffffffffffffffffffffffffffffffffffffffff168173ffffffffffffffffffffffffffffffffffffffff163373ffffffffffffffffffffffffffffffffffffffff1614806122ac57508073ffffffffffffffffffffffffffffffffffffffff163373ffffffffffffffffffffffffffffffffffffffff16145b1515612320576040517f08c379a00000000000000000000000000000000000000000000000000000000081526004018080602001828103825260168152602001807f53656e646572206e6f7420617574686f72697a65642e0000000000000000000081525060200191505060405180910390fd5b8460060160008573ffffffffffffffffffffffffffffffffffffffff1673ffffffffffffffffffffffffffffffffffffffff168152602001908152602001600020549250505092915050565b600082821115151561237a57fe5b818303905092915050565b600080828401905083811015151561239957fe5b80915050929150505600a165627a7a72305820fb80d837d9f284197a7c6be5f034757b5c6d31b83576fcb0ae30395a2b7daacc0029",
  "source": "pragma solidity ^0.4.10;\n\nimport \"../contracts/LibInterface.sol\";\nimport \"../contracts/lib/SafeMath.sol\";\n\nlibrary SnekCoin0_0_1 {\n  using SafeMath for uint;\n\n  modifier onlyBy(address account1, address account2) {\n    require(\n      msg.sender == account1 || msg.sender == account2 ,\n      \"Sender not authorized.\"\n    );\n    _;\n  }\n\n  function getSender(LibInterface.S storage s)\n  public view returns(address){\n    return msg.sender;\n  }\n\n  function approveMine(LibInterface.S storage s, address who, uint256 amount)\n  public onlyBy(s.root, s.root) returns(bool){\n    s.approvedMines[who] = amount;\n    return true;\n  }\n  function isMineApproved(LibInterface.S storage s, address who)\n  public view onlyBy(s.root, s.root) returns(uint256){\n    return s.approvedMines[who];\n  }\n\n  function changeMiningPrice(LibInterface.S storage s, uint256 amount)\n  public onlyBy(s.root, s.root) returns(bool){\n      s.weiPriceToMine = amount;\n  }\n  function changeMiningSnekPrice(LibInterface.S storage s, uint256 amount)\n  public onlyBy(s.root, s.root) returns(bool){\n    s.snekPriceToMine = amount;\n  }\n\n  function getMiningPrice(LibInterface.S storage s)\n  public view onlyBy(s.root, s.root) returns(uint256){\n    return s.weiPriceToMine;\n  }\n  function getMiningSnekPrice(LibInterface.S storage s)\n  public view onlyBy(s.root, s.root) returns(uint256){\n    return s.snekPriceToMine;\n  }\n\n  function mine(LibInterface.S storage s, bytes32 signedMessage, uint8 sigV, bytes32 sigR, bytes32 sigS, address sender, uint256 value)\n  public onlyBy(s.root, s.root) returns(bool) {\n    // Data is 3 uints packed into bytes32 as hex: 1337beef + pubkey + allowance nonce + amount.\n    // Bytes32 also convenient for sha3/keccak256 to work across web3 + solidity.\n    uint32 nonce = uint32(uint64(signedMessage) / 4294967296);\n    uint32 amount = uint32(uint64(signedMessage) & 4294967295);\n    require(value >= s.weiPriceToMine, \"Not enough ethereum\");\n    require(nonce == s.allowanceNonces[sender] , \"Not approved\");\n    if(ecrecover(keccak256(\"\\x19Ethereum Signed Message:\\n32\", signedMessage), sigV, sigR, sigS) != s.owner) {\n      revert();\n    }\n    //uint64 intData = uint64(data);\n    //s.balances[sender] = SafeMath.add(s.balances[sender], amount);\n    //s.allowanceNonces[sender] = s.allowanceNonces[sender] + 1;\n    s.allowanceNonces[sender] = 10;\n    s.totalSupp = SafeMath.add(s.totalSupp, amount);\n    return true;\n  }\n  function mineWithSnek(LibInterface.S storage s, uint256 amount, address sender, uint256 payAmount)\n  public onlyBy(s.root, s.root) returns(bool){\n    require(payAmount >= s.snekPriceToMine, \"Not enough snek\");\n    require(s.approvedMines[sender] >= amount, \"Not approved\");\n    require(amount - payAmount >= s.balances[sender], \"Not enough snek in wallet\");\n    s.balances[sender] = SafeMath.sub(SafeMath.add(s.balances[sender], amount), payAmount);\n    s.balances[s.owner] = SafeMath.add(s.balances[s.owner], payAmount);\n    s.approvedMines[sender] = SafeMath.sub(s.approvedMines[sender], amount);\n    s.totalSupp = SafeMath.add(s.totalSupp, amount);\n    return true;\n  }\n  function getUserNonce(LibInterface.S storage s, address who)\n  public returns(uint32) {\n    return s.allowanceNonces[who];\n  }\n  // *************************************************************************\n  // ****************************** BEGIN ERC20 ******************************\n  // *************************************************************************\n  // totalSupply - Get the total token supply\n  // balanceOf - Get the token balance of an address\n  // transfer - Send tokens to another address\n  // approve - Give another address permission to spend a certain allowance of tokens\n  // allowance - Check the allowance that one address has for another\n  // transferFrom - Spend the allowance that one address has for another */\n\n  function totalSupply(LibInterface.S storage s) public view returns(uint256) {\n    return s.totalSupp;\n  }\n\n  function balanceOf(LibInterface.S storage s, address _owner)\n  public view returns(uint256) {\n    return s.balances[_owner];\n  }\n\n  function allowance(LibInterface.S storage s, address _owner, address _spender)\n  public view returns(uint256) {\n    return s.allowed[_owner][_spender];\n  }\n\n  function transfer(LibInterface.S storage s, address _to, uint256 _value, address sender)\n  public returns(bool) {\n    // Address(0) is 0x0. It is the burn address for ETH.\n    // When used in the tx.to field, will cause the tx to create a new contract\n    require(_to != address(0));\n    require(_value <= s.balances[sender]);\n    s.balances[sender] = SafeMath.sub(s.balances[sender], _value);\n    s.balances[_to] = SafeMath.add(s.balances[_to], _value);\n    //emit Transfer(msg.sender, _to, _value);\n    return true;\n  }\n\n  function transferFrom(LibInterface.S storage s, address _from, address _to, uint256 _value, address sender)\n  public returns(bool) {\n    require(_to != address(0));\n    require(_value <= s.balances[_from]);\n    require(_value <= s.allowed[_from][sender]);\n    s.balances[_from] = SafeMath.sub(s.balances[_from], _value);\n    s.balances[_to] = SafeMath.add(s.balances[_to], _value);\n    s.allowed[_from][sender] = SafeMath.sub(s.allowed[_from][sender], _value);\n    //emit LibInterface.Transfer(_from, _to, _value);\n    return true;\n  }\n\n  // Approve allows a token holder to allocate some coins to an address without\n  // specifying the amount. This has a few usecases, but the main reason this\n  // is done is for contract-to-contract interoperability. Since contracts\n  // cannot listen for events so they will never be notified when they receive\n  // tokens.\n  //\n  // If a user wants to send RewardCoin tokens to another contract, the user\n  // should first approve the transfer to the contract's address. The user\n  // can then call a function in the contract(e.g. buyWithRewardCoin) that will\n  // will then call transferFrom.\n  function approve(LibInterface.S storage s, address _spender, uint256 _value, address sender)\n  public returns(bool) {\n    s.allowed[sender][_spender] = _value;\n    //emit Approval(msg.sender, _spender, _value);\n    return true;\n  }\n\n\n  // Allows incremental changes to allowed[]\n  function increaseApproval(LibInterface.S storage s, address _spender, uint _addedValue)\n  public returns(bool) {\n    s.allowed[msg.sender][_spender] = SafeMath.add(s.allowed[msg.sender][_spender], _addedValue);\n    //emit Approval(msg.sender, _spender, s.allowed[msg.sender][_spender]);\n    return true;\n  }\n\n  function decreaseApproval(LibInterface.S storage s, address _spender, uint _subtractedValue)\n  public returns(bool) {\n    uint oldValue = s.allowed[msg.sender][_spender];\n    if (_subtractedValue > oldValue) {\n      s.allowed[msg.sender][_spender] = 0;\n    } else {\n      s.allowed[msg.sender][_spender] = SafeMath.sub(oldValue, _subtractedValue);\n    }\n    //emit Approval(msg.sender, _spender, s.allowed[msg.sender][_spender]);\n    return true;\n  }\n  // *************************************************************************\n  // ****************************** END ERC20 ******************************\n  // *************************************************************************\n}\n",
  "sourcePath": "/Users/clay/projects/snekCoin/contracts/SnekCoin0_0_1.sol",
  "compiler": {
    "name": "solc",
    "version": "0.4.24+commit.e67f0147.Emscripten.clang"
  },
  "schemaVersion": "2.0.1",
  "updatedAt": "2018-12-16T02:37:13.721Z"
}