{
  "contractName": "SnekCoinBack",
  "abi": [
    {
      "constant": true,
      "inputs": [],
      "name": "s",
      "outputs": [
        {
          "name": "creationTime",
          "type": "uint256"
        },
        {
          "name": "weiPriceToMine",
          "type": "uint256"
        },
        {
          "name": "snekPriceToMine",
          "type": "uint256"
        },
        {
          "name": "owner",
          "type": "address"
        },
        {
          "name": "root",
          "type": "address"
        },
        {
          "name": "snekCurrentVersion",
          "type": "address"
        },
        {
          "name": "totalSupp",
          "type": "uint256"
        },
        {
          "name": "name",
          "type": "bytes32"
        },
        {
          "name": "decimals",
          "type": "uint8"
        }
      ],
      "payable": false,
      "stateMutability": "view",
      "type": "function"
    },
    {
      "constant": true,
      "inputs": [],
      "name": "owner",
      "outputs": [
        {
          "name": "",
          "type": "address"
        }
      ],
      "payable": false,
      "stateMutability": "view",
      "type": "function"
    },
    {
      "constant": false,
      "inputs": [
        {
          "name": "newOwner",
          "type": "address"
        }
      ],
      "name": "changeOwner",
      "outputs": [],
      "payable": false,
      "stateMutability": "nonpayable",
      "type": "function"
    },
    {
      "inputs": [
        {
          "name": "nm",
          "type": "bytes32"
        },
        {
          "name": "dec",
          "type": "uint8"
        },
        {
          "name": "ts",
          "type": "uint256"
        }
      ],
      "payable": false,
      "stateMutability": "nonpayable",
      "type": "constructor"
    },
    {
      "constant": true,
      "inputs": [],
      "name": "getSender",
      "outputs": [
        {
          "name": "",
          "type": "address"
        }
      ],
      "payable": false,
      "stateMutability": "view",
      "type": "function"
    },
    {
      "constant": false,
      "inputs": [
        {
          "name": "root",
          "type": "address"
        }
      ],
      "name": "setRoot",
      "outputs": [
        {
          "name": "",
          "type": "bool"
        }
      ],
      "payable": false,
      "stateMutability": "nonpayable",
      "type": "function"
    },
    {
      "constant": true,
      "inputs": [],
      "name": "getRoot",
      "outputs": [
        {
          "name": "",
          "type": "address"
        }
      ],
      "payable": false,
      "stateMutability": "view",
      "type": "function"
    },
    {
      "constant": false,
      "inputs": [
        {
          "name": "newOwner",
          "type": "address"
        }
      ],
      "name": "setOwner",
      "outputs": [
        {
          "name": "",
          "type": "bool"
        }
      ],
      "payable": false,
      "stateMutability": "nonpayable",
      "type": "function"
    },
    {
      "constant": true,
      "inputs": [],
      "name": "getOwner",
      "outputs": [
        {
          "name": "",
          "type": "address"
        }
      ],
      "payable": false,
      "stateMutability": "view",
      "type": "function"
    },
    {
      "constant": false,
      "inputs": [
        {
          "name": "who",
          "type": "address"
        },
        {
          "name": "amount",
          "type": "uint256"
        }
      ],
      "name": "approveMine",
      "outputs": [
        {
          "name": "",
          "type": "bool"
        }
      ],
      "payable": false,
      "stateMutability": "nonpayable",
      "type": "function"
    },
    {
      "constant": true,
      "inputs": [
        {
          "name": "who",
          "type": "address"
        }
      ],
      "name": "isMineApproved",
      "outputs": [
        {
          "name": "",
          "type": "uint256"
        }
      ],
      "payable": false,
      "stateMutability": "view",
      "type": "function"
    },
    {
      "constant": false,
      "inputs": [
        {
          "name": "amount",
          "type": "uint256"
        }
      ],
      "name": "changeMiningPrice",
      "outputs": [
        {
          "name": "",
          "type": "bool"
        }
      ],
      "payable": false,
      "stateMutability": "nonpayable",
      "type": "function"
    },
    {
      "constant": false,
      "inputs": [
        {
          "name": "amount",
          "type": "uint256"
        }
      ],
      "name": "changeMiningSnekPrice",
      "outputs": [
        {
          "name": "",
          "type": "bool"
        }
      ],
      "payable": false,
      "stateMutability": "nonpayable",
      "type": "function"
    },
    {
      "constant": true,
      "inputs": [],
      "name": "getMiningPrice",
      "outputs": [
        {
          "name": "",
          "type": "uint256"
        }
      ],
      "payable": false,
      "stateMutability": "view",
      "type": "function"
    },
    {
      "constant": true,
      "inputs": [],
      "name": "getMiningSnekPrice",
      "outputs": [
        {
          "name": "",
          "type": "uint256"
        }
      ],
      "payable": false,
      "stateMutability": "view",
      "type": "function"
    },
    {
      "constant": false,
      "inputs": [
        {
          "name": "signedMessage",
          "type": "bytes32"
        },
        {
          "name": "sigV",
          "type": "uint8"
        },
        {
          "name": "sigR",
          "type": "bytes32"
        },
        {
          "name": "sigS",
          "type": "bytes32"
        },
        {
          "name": "sender",
          "type": "address"
        },
        {
          "name": "value",
          "type": "uint256"
        }
      ],
      "name": "mine",
      "outputs": [
        {
          "name": "",
          "type": "bool"
        }
      ],
      "payable": false,
      "stateMutability": "nonpayable",
      "type": "function"
    },
    {
      "constant": false,
      "inputs": [
        {
          "name": "amount",
          "type": "uint256"
        },
        {
          "name": "sender",
          "type": "address"
        },
        {
          "name": "payAmount",
          "type": "uint256"
        }
      ],
      "name": "mineWithSnek",
      "outputs": [
        {
          "name": "",
          "type": "bool"
        }
      ],
      "payable": false,
      "stateMutability": "nonpayable",
      "type": "function"
    },
    {
      "constant": false,
      "inputs": [
        {
          "name": "who",
          "type": "address"
        }
      ],
      "name": "getUserNonce",
      "outputs": [
        {
          "name": "",
          "type": "uint32"
        }
      ],
      "payable": false,
      "stateMutability": "nonpayable",
      "type": "function"
    },
    {
      "constant": true,
      "inputs": [],
      "name": "totalSupply",
      "outputs": [
        {
          "name": "",
          "type": "uint256"
        }
      ],
      "payable": false,
      "stateMutability": "view",
      "type": "function"
    },
    {
      "constant": true,
      "inputs": [
        {
          "name": "tokenOwner",
          "type": "address"
        }
      ],
      "name": "balanceOf",
      "outputs": [
        {
          "name": "",
          "type": "uint256"
        }
      ],
      "payable": false,
      "stateMutability": "view",
      "type": "function"
    },
    {
      "constant": true,
      "inputs": [
        {
          "name": "tokenOwner",
          "type": "address"
        },
        {
          "name": "spender",
          "type": "address"
        }
      ],
      "name": "allowance",
      "outputs": [
        {
          "name": "",
          "type": "uint256"
        }
      ],
      "payable": false,
      "stateMutability": "view",
      "type": "function"
    },
    {
      "constant": false,
      "inputs": [
        {
          "name": "to",
          "type": "address"
        },
        {
          "name": "tokens",
          "type": "uint256"
        },
        {
          "name": "sender",
          "type": "address"
        }
      ],
      "name": "transfer",
      "outputs": [
        {
          "name": "",
          "type": "bool"
        }
      ],
      "payable": false,
      "stateMutability": "nonpayable",
      "type": "function"
    },
    {
      "constant": false,
      "inputs": [
        {
          "name": "spender",
          "type": "address"
        },
        {
          "name": "tokens",
          "type": "uint256"
        },
        {
          "name": "sender",
          "type": "address"
        }
      ],
      "name": "approve",
      "outputs": [
        {
          "name": "",
          "type": "bool"
        }
      ],
      "payable": false,
      "stateMutability": "nonpayable",
      "type": "function"
    },
    {
      "constant": false,
      "inputs": [
        {
          "name": "from",
          "type": "address"
        },
        {
          "name": "to",
          "type": "address"
        },
        {
          "name": "tokens",
          "type": "uint256"
        },
        {
          "name": "sender",
          "type": "address"
        }
      ],
      "name": "transferFrom",
      "outputs": [
        {
          "name": "",
          "type": "bool"
        }
      ],
      "payable": false,
      "stateMutability": "nonpayable",
      "type": "function"
    }
  ],
  "bytecode": "0x6080604052336000806101000a81548173ffffffffffffffffffffffffffffffffffffffff021916908373ffffffffffffffffffffffffffffffffffffffff16021790555034801561005057600080fd5b506040516060806125ee833981018060405281019080805190602001909291908051906020019092919080519060200190929190505050826001600801816000191690555081600160090160006101000a81548160ff021916908360ff16021790555080600160070181905550806001600a0160003373ffffffffffffffffffffffffffffffffffffffff1673ffffffffffffffffffffffffffffffffffffffff1681526020019081526020016000208190555033600160030160006101000a81548173ffffffffffffffffffffffffffffffffffffffff021916908373ffffffffffffffffffffffffffffffffffffffff16021790555030600160040160006101000a81548173ffffffffffffffffffffffffffffffffffffffff021916908373ffffffffffffffffffffffffffffffffffffffff16021790555064e8d4a510006001800181905550505050612442806101ac6000396000f300608060405260043610610132576000357c0100000000000000000000000000000000000000000000000000000000900463ffffffff1680623ba1ed146101375780631271f09a1461019257806313af4035146102175780631529aeb71461027257806318160ddd146102b75780631b0451d1146102e2578063569b26ef146103515780635ca1e165146103ed5780635e01eb5a146104445780635fc9309c1461049b5780636834e3a81461054057806370a08231146105a35780637462e065146105fa57806386b714e214610625578063893d20e81461071a5780638da5cb5b14610771578063a6f9dae1146107c8578063b137e0741461080b578063bf30f0b014610870578063dbba0f01146108c7578063dd62ed3e1461094c578063e98a9290146109c3578063fdb8bb84146109ee575b600080fd5b34801561014357600080fd5b50610178600480360381019080803573ffffffffffffffffffffffffffffffffffffffff169060200190929190505050610a33565b604051808215151515815260200191505060405180910390f35b34801561019e57600080fd5b506101fd600480360381019080803573ffffffffffffffffffffffffffffffffffffffff16906020019092919080359060200190929190803573ffffffffffffffffffffffffffffffffffffffff169060200190929190505050610ba1565b604051808215151515815260200191505060405180910390f35b34801561022357600080fd5b50610258600480360381019080803573ffffffffffffffffffffffffffffffffffffffff169060200190929190505050610cc5565b604051808215151515815260200191505060405180910390f35b34801561027e57600080fd5b5061029d60048036038101908080359060200190929190505050610e33565b604051808215151515815260200191505060405180910390f35b3480156102c357600080fd5b506102cc611014565b6040518082815260200191505060405180910390f35b3480156102ee57600080fd5b5061033760048036038101908080359060200190929190803573ffffffffffffffffffffffffffffffffffffffff169060200190929190803590602001909291905050506110c4565b604051808215151515815260200191505060405180910390f35b34801561035d57600080fd5b506103d36004803603810190808035600019169060200190929190803560ff16906020019092919080356000191690602001909291908035600019169060200190929190803573ffffffffffffffffffffffffffffffffffffffff169060200190929190803590602001909291905050506112e3565b604051808215151515815260200191505060405180910390f35b3480156103f957600080fd5b5061040261153b565b604051808273ffffffffffffffffffffffffffffffffffffffff1673ffffffffffffffffffffffffffffffffffffffff16815260200191505060405180910390f35b34801561045057600080fd5b50610459611568565b604051808273ffffffffffffffffffffffffffffffffffffffff1673ffffffffffffffffffffffffffffffffffffffff16815260200191505060405180910390f35b3480156104a757600080fd5b50610526600480360381019080803573ffffffffffffffffffffffffffffffffffffffff169060200190929190803573ffffffffffffffffffffffffffffffffffffffff16906020019092919080359060200190929190803573ffffffffffffffffffffffffffffffffffffffff169060200190929190505050611618565b604051808215151515815260200191505060405180910390f35b34801561054c57600080fd5b50610581600480360381019080803573ffffffffffffffffffffffffffffffffffffffff169060200190929190505050611771565b604051808263ffffffff1663ffffffff16815260200191505060405180910390f35b3480156105af57600080fd5b506105e4600480360381019080803573ffffffffffffffffffffffffffffffffffffffff169060200190929190505050611857565b6040518082815260200191505060405180910390f35b34801561060657600080fd5b5061060f61193d565b6040518082815260200191505060405180910390f35b34801561063157600080fd5b5061063a6119ed565b604051808a81526020018981526020018881526020018773ffffffffffffffffffffffffffffffffffffffff1673ffffffffffffffffffffffffffffffffffffffff1681526020018673ffffffffffffffffffffffffffffffffffffffff1673ffffffffffffffffffffffffffffffffffffffff1681526020018573ffffffffffffffffffffffffffffffffffffffff1673ffffffffffffffffffffffffffffffffffffffff16815260200184815260200183600019166000191681526020018260ff1660ff168152602001995050505050505050505060405180910390f35b34801561072657600080fd5b5061072f611a96565b604051808273ffffffffffffffffffffffffffffffffffffffff1673ffffffffffffffffffffffffffffffffffffffff16815260200191505060405180910390f35b34801561077d57600080fd5b50610786611ac3565b604051808273ffffffffffffffffffffffffffffffffffffffff1673ffffffffffffffffffffffffffffffffffffffff16815260200191505060405180910390f35b3480156107d457600080fd5b50610809600480360381019080803573ffffffffffffffffffffffffffffffffffffffff169060200190929190505050611ae8565b005b34801561081757600080fd5b50610856600480360381019080803573ffffffffffffffffffffffffffffffffffffffff16906020019092919080359060200190929190505050611c4a565b604051808215151515815260200191505060405180910390f35b34801561087c57600080fd5b506108b1600480360381019080803573ffffffffffffffffffffffffffffffffffffffff169060200190929190505050611e60565b6040518082815260200191505060405180910390f35b3480156108d357600080fd5b50610932600480360381019080803573ffffffffffffffffffffffffffffffffffffffff16906020019092919080359060200190929190803573ffffffffffffffffffffffffffffffffffffffff169060200190929190505050611f46565b604051808215151515815260200191505060405180910390f35b34801561095857600080fd5b506109ad600480360381019080803573ffffffffffffffffffffffffffffffffffffffff169060200190929190803573ffffffffffffffffffffffffffffffffffffffff16906020019092919050505061206a565b6040518082815260200191505060405180910390f35b3480156109cf57600080fd5b506109d8612185565b6040518082815260200191505060405180910390f35b3480156109fa57600080fd5b50610a1960048036038101908080359060200190929190505050612235565b604051808215151515815260200191505060405180910390f35b60008060009054906101000a900473ffffffffffffffffffffffffffffffffffffffff16600160040160009054906101000a900473ffffffffffffffffffffffffffffffffffffffff168173ffffffffffffffffffffffffffffffffffffffff163373ffffffffffffffffffffffffffffffffffffffff161480610ae257508073ffffffffffffffffffffffffffffffffffffffff163373ffffffffffffffffffffffffffffffffffffffff16145b1515610b56576040517f08c379a00000000000000000000000000000000000000000000000000000000081526004018080602001828103825260168152602001807f53656e646572206e6f7420617574686f72697a65642e0000000000000000000081525060200191505060405180910390fd5b83600160040160006101000a81548173ffffffffffffffffffffffffffffffffffffffff021916908373ffffffffffffffffffffffffffffffffffffffff1602179055505050919050565b6000600173__LibInterface__________________________63e77176e890918686866040518563ffffffff167c0100000000000000000000000000000000000000000000000000000000028152600401808581526020018473ffffffffffffffffffffffffffffffffffffffff1673ffffffffffffffffffffffffffffffffffffffff1681526020018381526020018273ffffffffffffffffffffffffffffffffffffffff1673ffffffffffffffffffffffffffffffffffffffff16815260200194505050505060206040518083038186803b158015610c8157600080fd5b505af4158015610c95573d6000803e3d6000fd5b505050506040513d6020811015610cab57600080fd5b810190808051906020019092919050505090509392505050565b60008060009054906101000a900473ffffffffffffffffffffffffffffffffffffffff16600160040160009054906101000a900473ffffffffffffffffffffffffffffffffffffffff168173ffffffffffffffffffffffffffffffffffffffff163373ffffffffffffffffffffffffffffffffffffffff161480610d7457508073ffffffffffffffffffffffffffffffffffffffff163373ffffffffffffffffffffffffffffffffffffffff16145b1515610de8576040517f08c379a00000000000000000000000000000000000000000000000000000000081526004018080602001828103825260168152602001807f53656e646572206e6f7420617574686f72697a65642e0000000000000000000081525060200191505060405180910390fd5b83600160030160006101000a81548173ffffffffffffffffffffffffffffffffffffffff021916908373ffffffffffffffffffffffffffffffffffffffff1602179055505050919050565b6000600160040160009054906101000a900473ffffffffffffffffffffffffffffffffffffffff16600160040160009054906101000a900473ffffffffffffffffffffffffffffffffffffffff168173ffffffffffffffffffffffffffffffffffffffff163373ffffffffffffffffffffffffffffffffffffffff161480610ee657508073ffffffffffffffffffffffffffffffffffffffff163373ffffffffffffffffffffffffffffffffffffffff16145b1515610f5a576040517f08c379a00000000000000000000000000000000000000000000000000000000081526004018080602001828103825260168152602001807f53656e646572206e6f7420617574686f72697a65642e0000000000000000000081525060200191505060405180910390fd5b600173__LibInterface__________________________63c13873489091866040518363ffffffff167c0100000000000000000000000000000000000000000000000000000000028152600401808381526020018281526020019250505060206040518083038186803b158015610fd057600080fd5b505af4158015610fe4573d6000803e3d6000fd5b505050506040513d6020811015610ffa57600080fd5b810190808051906020019092919050505092505050919050565b6000600173__LibInterface__________________________63726eecb190916040518263ffffffff167c01000000000000000000000000000000000000000000000000000000000281526004018082815260200191505060206040518083038186803b15801561108457600080fd5b505af4158015611098573d6000803e3d6000fd5b505050506040513d60208110156110ae57600080fd5b8101908080519060200190929190505050905090565b6000600160040160009054906101000a900473ffffffffffffffffffffffffffffffffffffffff16600160040160009054906101000a900473ffffffffffffffffffffffffffffffffffffffff168173ffffffffffffffffffffffffffffffffffffffff163373ffffffffffffffffffffffffffffffffffffffff16148061117757508073ffffffffffffffffffffffffffffffffffffffff163373ffffffffffffffffffffffffffffffffffffffff16145b15156111eb576040517f08c379a00000000000000000000000000000000000000000000000000000000081526004018080602001828103825260168152602001807f53656e646572206e6f7420617574686f72697a65642e0000000000000000000081525060200191505060405180910390fd5b600173__LibInterface__________________________63b61db2fe90918888886040518563ffffffff167c0100000000000000000000000000000000000000000000000000000000028152600401808581526020018481526020018373ffffffffffffffffffffffffffffffffffffffff1673ffffffffffffffffffffffffffffffffffffffff16815260200182815260200194505050505060206040518083038186803b15801561129d57600080fd5b505af41580156112b1573d6000803e3d6000fd5b505050506040513d60208110156112c757600080fd5b8101908080519060200190929190505050925050509392505050565b6000600160040160009054906101000a900473ffffffffffffffffffffffffffffffffffffffff16600160040160009054906101000a900473ffffffffffffffffffffffffffffffffffffffff168173ffffffffffffffffffffffffffffffffffffffff163373ffffffffffffffffffffffffffffffffffffffff16148061139657508073ffffffffffffffffffffffffffffffffffffffff163373ffffffffffffffffffffffffffffffffffffffff16145b151561140a576040517f08c379a00000000000000000000000000000000000000000000000000000000081526004018080602001828103825260168152602001807f53656e646572206e6f7420617574686f72697a65642e0000000000000000000081525060200191505060405180910390fd5b600173__LibInterface__________________________63d4445d0190918b8b8b8b8b8b6040518863ffffffff167c01000000000000000000000000000000000000000000000000000000000281526004018088815260200187600019166000191681526020018660ff1660ff168152602001856000191660001916815260200184600019166000191681526020018373ffffffffffffffffffffffffffffffffffffffff1673ffffffffffffffffffffffffffffffffffffffff16815260200182815260200197505050505050505060206040518083038186803b1580156114f257600080fd5b505af4158015611506573d6000803e3d6000fd5b505050506040513d602081101561151c57600080fd5b8101908080519060200190929190505050925050509695505050505050565b6000600160040160009054906101000a900473ffffffffffffffffffffffffffffffffffffffff16905090565b6000600173__LibInterface__________________________63873b63f390916040518263ffffffff167c01000000000000000000000000000000000000000000000000000000000281526004018082815260200191505060206040518083038186803b1580156115d857600080fd5b505af41580156115ec573d6000803e3d6000fd5b505050506040513d602081101561160257600080fd5b8101908080519060200190929190505050905090565b6000600173__LibInterface__________________________633053fdec9091878787876040518663ffffffff167c0100000000000000000000000000000000000000000000000000000000028152600401808681526020018573ffffffffffffffffffffffffffffffffffffffff1673ffffffffffffffffffffffffffffffffffffffff1681526020018473ffffffffffffffffffffffffffffffffffffffff1673ffffffffffffffffffffffffffffffffffffffff1681526020018381526020018273ffffffffffffffffffffffffffffffffffffffff1673ffffffffffffffffffffffffffffffffffffffff1681526020019550505050505060206040518083038186803b15801561172c57600080fd5b505af4158015611740573d6000803e3d6000fd5b505050506040513d602081101561175657600080fd5b81019080805190602001909291905050509050949350505050565b6000600173__LibInterface__________________________63e0e660ef9091846040518363ffffffff167c0100000000000000000000000000000000000000000000000000000000028152600401808381526020018273ffffffffffffffffffffffffffffffffffffffff1673ffffffffffffffffffffffffffffffffffffffff1681526020019250505060206040518083038186803b15801561181557600080fd5b505af4158015611829573d6000803e3d6000fd5b505050506040513d602081101561183f57600080fd5b81019080805190602001909291905050509050919050565b6000600173__LibInterface__________________________63c3fc280b9091846040518363ffffffff167c0100000000000000000000000000000000000000000000000000000000028152600401808381526020018273ffffffffffffffffffffffffffffffffffffffff1673ffffffffffffffffffffffffffffffffffffffff1681526020019250505060206040518083038186803b1580156118fb57600080fd5b505af415801561190f573d6000803e3d6000fd5b505050506040513d602081101561192557600080fd5b81019080805190602001909291905050509050919050565b6000600173__LibInterface__________________________63ed1d493f90916040518263ffffffff167c01000000000000000000000000000000000000000000000000000000000281526004018082815260200191505060206040518083038186803b1580156119ad57600080fd5b505af41580156119c1573d6000803e3d6000fd5b505050506040513d60208110156119d757600080fd5b8101908080519060200190929190505050905090565b60018060000154908060010154908060020154908060030160009054906101000a900473ffffffffffffffffffffffffffffffffffffffff16908060040160009054906101000a900473ffffffffffffffffffffffffffffffffffffffff16908060050160009054906101000a900473ffffffffffffffffffffffffffffffffffffffff16908060070154908060080154908060090160009054906101000a900460ff16905089565b6000600160030160009054906101000a900473ffffffffffffffffffffffffffffffffffffffff16905090565b6000809054906101000a900473ffffffffffffffffffffffffffffffffffffffff1681565b6000809054906101000a900473ffffffffffffffffffffffffffffffffffffffff166000809054906101000a900473ffffffffffffffffffffffffffffffffffffffff168173ffffffffffffffffffffffffffffffffffffffff163373ffffffffffffffffffffffffffffffffffffffff161480611b9157508073ffffffffffffffffffffffffffffffffffffffff163373ffffffffffffffffffffffffffffffffffffffff16145b1515611c05576040517f08c379a00000000000000000000000000000000000000000000000000000000081526004018080602001828103825260168152602001807f53656e646572206e6f7420617574686f72697a65642e0000000000000000000081525060200191505060405180910390fd5b826000806101000a81548173ffffffffffffffffffffffffffffffffffffffff021916908373ffffffffffffffffffffffffffffffffffffffff160217905550505050565b6000600160040160009054906101000a900473ffffffffffffffffffffffffffffffffffffffff16600160040160009054906101000a900473ffffffffffffffffffffffffffffffffffffffff168173ffffffffffffffffffffffffffffffffffffffff163373ffffffffffffffffffffffffffffffffffffffff161480611cfd57508073ffffffffffffffffffffffffffffffffffffffff163373ffffffffffffffffffffffffffffffffffffffff16145b1515611d71576040517f08c379a00000000000000000000000000000000000000000000000000000000081526004018080602001828103825260168152602001807f53656e646572206e6f7420617574686f72697a65642e0000000000000000000081525060200191505060405180910390fd5b600173__LibInterface__________________________632dab5487909187876040518463ffffffff167c0100000000000000000000000000000000000000000000000000000000028152600401808481526020018373ffffffffffffffffffffffffffffffffffffffff1673ffffffffffffffffffffffffffffffffffffffff168152602001828152602001935050505060206040518083038186803b158015611e1b57600080fd5b505af4158015611e2f573d6000803e3d6000fd5b505050506040513d6020811015611e4557600080fd5b81019080805190602001909291905050509250505092915050565b6000600173__LibInterface__________________________63fae7b71d9091846040518363ffffffff167c0100000000000000000000000000000000000000000000000000000000028152600401808381526020018273ffffffffffffffffffffffffffffffffffffffff1673ffffffffffffffffffffffffffffffffffffffff1681526020019250505060206040518083038186803b158015611f0457600080fd5b505af4158015611f18573d6000803e3d6000fd5b505050506040513d6020811015611f2e57600080fd5b81019080805190602001909291905050509050919050565b6000600173__LibInterface__________________________63c266bd3a90918686866040518563ffffffff167c0100000000000000000000000000000000000000000000000000000000028152600401808581526020018473ffffffffffffffffffffffffffffffffffffffff1673ffffffffffffffffffffffffffffffffffffffff1681526020018381526020018273ffffffffffffffffffffffffffffffffffffffff1673ffffffffffffffffffffffffffffffffffffffff16815260200194505050505060206040518083038186803b15801561202657600080fd5b505af415801561203a573d6000803e3d6000fd5b505050506040513d602081101561205057600080fd5b810190808051906020019092919050505090509392505050565b6000600173__LibInterface__________________________63f11d2c04909185856040518463ffffffff167c0100000000000000000000000000000000000000000000000000000000028152600401808481526020018373ffffffffffffffffffffffffffffffffffffffff1673ffffffffffffffffffffffffffffffffffffffff1681526020018273ffffffffffffffffffffffffffffffffffffffff1673ffffffffffffffffffffffffffffffffffffffff168152602001935050505060206040518083038186803b15801561214257600080fd5b505af4158015612156573d6000803e3d6000fd5b505050506040513d602081101561216c57600080fd5b8101908080519060200190929190505050905092915050565b6000600173__LibInterface__________________________636a9e0e2890916040518263ffffffff167c01000000000000000000000000000000000000000000000000000000000281526004018082815260200191505060206040518083038186803b1580156121f557600080fd5b505af4158015612209573d6000803e3d6000fd5b505050506040513d602081101561221f57600080fd5b8101908080519060200190929190505050905090565b6000600160040160009054906101000a900473ffffffffffffffffffffffffffffffffffffffff16600160040160009054906101000a900473ffffffffffffffffffffffffffffffffffffffff168173ffffffffffffffffffffffffffffffffffffffff163373ffffffffffffffffffffffffffffffffffffffff1614806122e857508073ffffffffffffffffffffffffffffffffffffffff163373ffffffffffffffffffffffffffffffffffffffff16145b151561235c576040517f08c379a00000000000000000000000000000000000000000000000000000000081526004018080602001828103825260168152602001807f53656e646572206e6f7420617574686f72697a65642e0000000000000000000081525060200191505060405180910390fd5b600173__LibInterface__________________________639a5a1f419091866040518363ffffffff167c0100000000000000000000000000000000000000000000000000000000028152600401808381526020018281526020019250505060206040518083038186803b1580156123d257600080fd5b505af41580156123e6573d6000803e3d6000fd5b505050506040513d60208110156123fc57600080fd5b8101908080519060200190929190505050925050509190505600a165627a7a72305820187ab47bf2cdca706cc9e6d5e50450027b3ec710b11cc2e076492fe78e3785e90029",
  "source": "pragma solidity ^0.4.10;\n\nimport \"./LibInterface.sol\";\nimport \"./lib/Ownable.sol\";\n//import \"./PayableLib.sol\";\n\n// Just strips msg.value so lib can be called.\ncontract SnekCoinBack is Ownable {\n  LibInterface.S public s;\n  using LibInterface for LibInterface.S;\n  //using snekCurrentVersion for address;\n  constructor(bytes32 nm, uint8 dec, uint256 ts) public {\n    s.name = nm;\n    s.decimals = dec;\n    s.totalSupp = ts;\n    s.balances[msg.sender] = ts;\n    s.owner = msg.sender;\n    s.root = address(this);\n    s.weiPriceToMine = 1000000000000; // 0.000001 ETH\n  }\n\n  // ****** BEGIN TEST FUNCTIONS ******\n  function getSender()\n  public constant returns(address){\n    return s.getSender();\n  }\n  // ****** END TEST FUNCTIONS ******\n\n  // ****** BEGIN BASIC FUNCTIONS ******\n  function setRoot(address root)\n  public onlyBy(owner, s.root) returns(bool){\n    s.root = root;\n  }\n  function getRoot()\n  public view returns(address){\n    return s.root;\n  }\n  function setOwner(address newOwner)\n  public onlyBy(owner, s.root) returns(bool){\n    s.owner = newOwner;\n  }\n  function getOwner()\n  public view returns(address){\n    return s.owner;\n  }\n  // ****** END BASIC FUNCTIONS ******\n\n  // ****** BEGIN CONTRACT BUSINESS FUNCTIONS ******\n  function approveMine(address who, uint256 amount)\n  public onlyBy(s.root, s.root) returns(bool) {\n    return s.approveMine(who, amount);\n  }\n  function isMineApproved(address who)\n  public view returns(uint256) {\n    return s.isMineApproved(who);\n  }\n\n  function changeMiningPrice(uint256 amount)\n  public onlyBy(s.root, s.root) returns(bool){\n    return s.changeMiningPrice(amount);\n  }\n\n  function changeMiningSnekPrice(uint256 amount)\n  public onlyBy(s.root, s.root) returns(bool){\n    return s.changeMiningSnekPrice(amount);\n  }\n\n  function getMiningPrice()\n  public view returns(uint256){\n    return s.getMiningPrice();\n  }\n  function getMiningSnekPrice()\n  public view returns(uint256){\n    return s.getMiningSnekPrice();\n  }\n\n  //function mine(uint256 amount, address sender, uint256 value)\n  function mine(bytes32 signedMessage, uint8 sigV, bytes32 sigR, bytes32 sigS, address sender, uint256 value)\n  public onlyBy(s.root, s.root) returns(bool) {\n    return s.mine(signedMessage, sigV, sigR, sigS, sender, value);\n  }\n  function mineWithSnek(uint256 amount, address sender, uint256 payAmount)\n  public onlyBy(s.root, s.root) returns(bool) {\n    return s.mineWithSnek(amount, sender, payAmount);\n  }\n  function getUserNonce(address who)\n  public returns(uint32){\n    return s.getUserNonce(who);\n  }\n  // ****** END CONTRACT BUSINESS FUNCTIONS ******\n\n  // ****** BEGIN ERC20 ******\n  function totalSupply() public view returns(uint256){\n    return s.totalSupply();\n  }\n  function balanceOf(address tokenOwner) public view returns(uint256){\n    return s.balanceOf(tokenOwner);\n  }\n  function allowance(address tokenOwner, address spender) public view returns(uint256){\n    return s.allowance(tokenOwner, spender);\n  }\n  function transfer(address to, uint tokens, address sender) public returns(bool){\n    return s.transfer(to, tokens, sender);\n  }\n  function approve(address spender, uint tokens, address sender) public returns(bool){\n    return s.approve(spender, tokens, sender);\n  }\n  function transferFrom(address from, address to, uint tokens, address sender) public returns(bool){\n    return s.transferFrom(from, to, tokens, sender);\n  }\n  // ****** END ERC20 ******\n}\n",
  "sourcePath": "/Users/clay/projects/snekCoin/contracts/SnekCoinBack.sol",
  "compiler": {
    "name": "solc",
    "version": "0.4.24+commit.e67f0147.Emscripten.clang"
  },
  "schemaVersion": "2.0.1",
  "updatedAt": "2018-12-16T02:37:13.713Z"
}